S00C0000776561722E7372656369
S1130000CEC30000E9C30000E7C30000E5C300005D
S1130010E3C30000E1C30000DFC30000DDC3000050
S1130020DBC300000C94430BD7C300000C94F119FC
S11300300C9435170C945E170C9487170C94B01716
S11300400C94D9170C9402180C942B180C94541873
S11300500C947D180C94A618BFC300000C94150DC5
S1130060BBC30000B9C30000B7C30000B5C30000A0
S1130070B3C30000B1C30000AFC30000ADC30000B0
S1130080ABC30000A9C300000C94FC150C945C11D4
S11300900C94CF180C94F8180C9421190C944A1948
S11300A00C94820D99C3000097C30000A90BAE0BFA
S11300B0E00BE00BE00BE00BE00BE00BE00BE00BE4
S11300C0E00BE00BE00BE00BE00BE00BB30BE00B01
S11300D0E00BE00BE00BE00BE00BE00BE00BE00BC4
S11300E0E00BE00BE00BE00BE00BE00BE00BB80BDC
S11300F0BD0BE00BE00BE00BE00BE00BE00BE00BC7
S1130100E00BE00BE00BE00BE00BE00BE00BC20BB1
S1130110C70BE00BE00BE00BE00BE00BE00BE00B9C
S1130120E00BE00BE00BE00BE00BE00BE00BCC0B87
S1130130D10BE00BE00BE00BE00BE00BE00BE00B72
S1130140E00BE00BE00BE00BE00BE00BE00BD60B5D
S1130150DB0B350E440E890E8E0E930E980EA60EF2
S1130160A60EA60EA60EA60EA60EA60EA60EA60EEB
S1130170A60EA60EA60EA60EA60EA60EA60EA60EDB
S1130180A60EA60EA60EA60EA60EA60EA60EA60ECB
S1130190A60EA60EA60EA60EA60EA60EA60EA60EBB
S11301A0A60EA60EA60EA60EA60EA60EA60EA60EAB
S11301B0A60EA60EA60EA60EA60EA60EA60EA60E9B
S11301C0A60EA60EA60EA60EA60EA60EA60EA60E8B
S11301D0A60EA60E9F0EB10DA60EA60EA60EA50E79
S11301E0A60EA60EA60EA60EA60E9D0EA60EA60E74
S11301F0190EA60EA60EA60EA60EA60EA60EA60EE8
S1130200A60EA60EA60EA60EA60EA60EA60EA60E4A
S1130210A60EA60EA60EA30EA60EA60EA60EA60E3D
S1130220A60EA60EA60EA60EA60EA60EA60EA60E2A
S1130230A10E510E590E610E690E710E790E810ECA
S113024014145A1468143E1422144C14301400006C
S113025014005000B4004001F301CD02CD03F304B7
S11302603D06AD073F09F40AC90CBF0ED4100713AD
S11302705515BE17411ADB1C8B1F502227250F284A
S1130280062B0A2E193132345237773AA03DCB402F
S1130290F5431C473F4A5C4D70507A537856675972
S11302A0475C155FCF61756403677969D66B166E19
S11302B03A703F722674EB758F770F796D7AA57B50
S11302C0B87CA57D6C7E0B7F837FD37FFB7FFB7F18
S11302D0D37F837F0B7F6C7EA57DB87CA57B6D7AF5
S11302E00F798F77EB7526743F723A70166ED66B62
S11302F0796903677564CF61155F475C6759785600
S11303007A5370505C4D3F4A1C47F543CB40A03DA7
S1130310773A5237323419310A2E062B0F28272503
S113032050228B1FDB1C411ABE1755150713D4101E
S1130330BF0EC90CF40A3F09AD073D06F304CD0313
S1130340CD02F3014001B40050001400000000018C
S1130350010202020203030303030304040404046A
S11303600404040505050505050505050506060639
S11303700606060606060606060707070707070712
S113038007070707070707080808080808080808F0
S113039008080808080808090909090909090909D0
S11303A00909090909090909090A0A0A0A0A0A0AB2
S11303B00A0A0A0A0A0A0A0A0A0A0A0A0A0B0B0B96
S11303C00B0B0B0B0B0B0B0B0B0B0B0B0B0B0B0B79
S11303D00B0B0B0C0C0C0C0C0C0C0C0C0C0C0C0C5C
S11303E00C0C0C0C0C0C0C0C0C0C0C0D0D0D0D0D44
S11303F00D0D0D0D0D0D0D0D0D0D0D0D0D0D0D0D29
S11304000D0D0D0D0D0E0E0E0E0E0E0E0E0E0E0E0D
S11304100E0E0E0E0E0E0E0E0E0E0E0E0E0E0E0EF8
S11304200E0F0F0F0F0F0F0F0F0F0F0F0F0F0F0FD9
S11304300F0F0F0F0F0F0F0F0F0F0F0F0F0F0F10C7
S113044010101010101010101010101010100006C2
S1130450080A0B0D0E0F101112131414151617178A
S11304601819191A1B1B1C1C1D1D1E1E1F1F2020C2
S11304702121222223232424252526262627272832
S1130480282829292A2A2A2B2B2B2C2C2D2D2D2EBA
S11304902E2E2F2F2F303030313131323232333350
S11304A033343434343535353636363737373738F0
S11304B03838393939393A3A3A3B3B3B3B3C3C3C96
S11304C03C3D3D3D3D3E3E3E3E3F3F3F3F40000BB9
S11304D0101417191C1E2022242627292A2C2D2FFC
S11304E030313334353637393A3B3C3D3E3F404179
S11304F04243444546474848494A4B4C4D4E4E4F6B
S1130500505152525354555556575858595A5B5B8B
S11305105C5D5D5E5F5F60616162636364656566C7
S113052066676868696A6A6B6B6C6D6D6E6E6F6F17
S11305307071717272737374747576767777787874
S113054079797A7A7B7B7C7C7D7D7E7E7F7F0010CF
S1130550171C2024272A2D303335373A3C3E40429D
S1130560444648494B4D4E505253555658595B5C7E
S11305705D5F60616364656668696A6B6D6E6F7008
S113058071727374767778797A7B7C7D7E7F8081D3
S113059082838485868788898A8B8B8C8D8E8F90C5
S11305A091929394949596979899999A9B9C9D9ED1
S11305B09E9FA0A1A2A2A3A4A5A6A6A7A8A9A9AAF2
S11305C0ABACACADAEAFAFB0B1B1B2B3B4B4B5B621
S11305D0B6B7B8B9B9BABBBBBCBDBDBEBFBFC0C15D
S11305E0C1C2C3C3C4C5C5C6C7C7C8C8C9CACACBA4
S11305F0CCCCCDCECECFCFD0D1D1D2D2D3D4D4D5F2
S1130600D5D6D7D7D8D8D9DADADBDBDCDDDDDEDE48
S1130610DFDFE0E1E1E2E2E3E3E4E5E5E6E6E7E7A4
S1130620E8E8E9EAEAEBEBECECEDEDEEEEEFEFF007
S1130630F1F1F2F2F3F3F4F4F5F5F6F6F7F7F8F86E
S1130640F9F9FAFAFBFBFCFCFDFDFEFEFFFF700767
S1130650780F74177C1F72277A2F76377E3F714785
S1130660794F75577D5F73677B6F6003680B641305
S11306706C1B62236A2B66336E3B6143694B655383
S11306806D5B5005580D54155C1D52255A2D563579
S11306905E3D5145594D4001480944114C194221D0
S11306A04A2946314E393006380E34163C1E32265D
S11306B03A2E2002280A24122C1A1004180C42760E
S11306C0FC30825A825AFC3042768A7DF91842768E
S11306D0FC306E6A1D47825A825A1D476E6AFC308E
S11306E04276F9188A7D627F8C0C8A7DF9187D7AAE
S11306F028254276FC30E370573C6E6A1D47F2624F
S11307003451825A825A3451F2621D476E6A573C00
S1130710E370FC30427628257D7AF9188A7D8C0CAA
S1130720627FD97F4806627F8C0C9D7EC8128A7DC9
S1130730F9182A7C1A1F7D7A282585781F2B427682
S1130740FC30B673BA36E370573CCA6DCE416E6A5C
S11307501D47D066404CF2623451D75EF655825A3A
S1130760825AF655D75E3451F262404CD0661D472A
S11307706E6ACE41CA6D573CE370BA36B673FC302C
S113078042761F2B857828257D7A1A1F2A7CF91832
S11307908A7DC8129D7E8C0C627F4806D97F112405
S11307A01FBECFEFCDBFDFE2DEBF10E2A0E0B0E2BC
S11307B0EEE9FEE302C005900D92AE3FB107D9F712
S11307C02AE2AEEFB0E201C01D92AD3AB207E1F702
S11307D00E946E130C944D1F13CC609180006270C4
S11307E0616024E0829FC00111248C73682B80E82F
S11307F090E00E94DB16E0E8F0E0828180FDFDCF0E
S11308000895609180006C73636080E890E00E94BA
S1130810DB16E0E8F0E0828180FDFDCF08951F93B0
S1130820CF93DF93CDB7DEB76197CDBFDEBF182F6F
S1130830BE016F5F7F4F80E092E00E94691699814C
S11308402A812F7822612A8382E08C83917E9061B1
S113085099831B828FB7F89498E0909308028FBF16
S1130860BE016F5F7F4F80E092E00E942A16AE01C6
S1130870485F5F4F61E080E092E00E94B31614305D
S1130880B9F028F4113041F0123061F021C0153074
S1130890A9F01630C1F01CC0198A81E0888780E273
S11308A0898716C0198A8AE0888788E0898710C0FA
S11308B0198A8AE0888783E189870AC081E088876A
S11308C080E6898705C0188688E0898786E4898B55
S11308D08A851C86807F8A87AE01485F5F4F61E00E
S11308E080E092E00E948B1680E092E00E94D21594
S11308F09FB7F894E0E0F2E08081846080839FBF3A
S1130900868180FFFDCF81E0809306026196CDBF92
S1130910DEBFDF91CF911F9108951F93CF93DF9393
S1130920CDB7DEB72A97CDBFDEBF182FAE014F5F1C
S11309305F4F61E080E092E00E94B3161430B9F09A
S113094028F4113041F0123061F021C01530A9F0C3
S11309501630C1F01CC01A8681E0898380E28A8344
S113096016C01A868AE0898388E08A8310C01A86B2
S11309708AE0898383E18A830AC081E0898380E6EF
S11309808A8305C0198288E08A8386E48A87AE0157
S11309904F5F5F4F61E080E092E00E948B162A96E1
S11309A0CDBFDEBFDF91CF911F91089580913F218C
S11309B0843009F44CC028F4813051F0823009F1BC
S11309C00895853009F469C0863009F475C0089526
S11309D00E94E90E811192C080913F2180933E21B3
S11309E086E080933F2180913F2197DF80E098E06B
S11309F00E94731980E498E00E94A5190C94190FC1
S1130A0008958091FF20909100219C012F5F3F4F1A
S1130A102093FF2030930021880F991FFC01E05997
S1130A20F64D408351838091FF20909100218038BE
S1130A30910508F463C01092FF201092002181E018
S1130A408093FE2080E098E00C94A519089580918D
S1130A50FF20909100219C012F5F3F4F2093FF20A6
S1130A6030930021880F991FFC01E059F64D408313
S1130A7051838091FF20909100218038910508F4E2
S1130A803DC01092FF201092002181E08093FE204F
S1130A9080E098E00C94A519089540933A2150936E
S1130AA03B2181E08093372180913E2180933F2137
S1130AB080913F2132CF08954093382150933921BA
S1130AC081E0809336210E94E90E8823B9F04FEF2C
S1130AD060E080E00E94EE0E80913F2180933E21F1
S1130AE081E080933F2180913F2117DF80E098E0EF
S1130AF00E94A51980E498E00C9473190895CF938B
S1130B00DF93CDB7DEB72A97CDBFDEBF80E092E09A
S1130B100E94E915AE014F5F5F4F61E080E092E013
S1130B200E94B316E0EAF0E082818160828366ED80
S1130B3074E080E092E00E94A9158B818C7F816033
S1130B408B83AE014F5F5F4F61E080E092E00E94D3
S1130B508B1680E092E00E94D21578942A96CDBF3D
S1130B60DEBFDF91CF910895662369F0FC01AC01EB
S1130B70460F511D80E090E02191820F911DE417F2
S1130B80F507D1F702C080E090E070E00E94FE1EFD
S1130B90862F08958F929F92AF92BF92EF92FF9209
S1130BA00F931F93CF93DF9380911521909116217A
S1130BB0A0911721B09118218093092190930A21C3
S1130BC0A0930B21B0930C218091112190911221BB
S1130BD0A0911321B09114218093052190930621B3
S1130BE0A0930721B093082180910D2190910E21AB
S1130BF0A0910F21B09110218093012190930221A3
S1130C00A0930321B0930421109215211092162170
S1130C101092172110921821109211211092122172
S1130C20109213211092142110920D2110920E2172
S1130C3010920F211092102100910F20109110207A
S1130C401016110644F5812C912C54010F2EFDEA47
S1130C50EF2EF5E2FF2EF02DC0E0D0E0F7018191F8
S1130C6091917F01BC0180E090E00E94E51D9B0111
S1130C70AC01C501B4010E94E91C4B015C01219641
S1130C80C017D1075CF360931521709316218093EC
S1130C90172190931821C0910D20D0910E20C00FE0
S1130CA0D11F0C171D076CF5809011219090122113
S1130CB0A0901321B0901421C801880F991F9C01A2
S1130CC023553A4D7901F701819191917F01BC013E
S1130CD080E090E00E94E51D9B01AC01C501B401D8
S1130CE00E94E91C4B015C010F5F1F4F0C171D078D
S1130CF054F36093112170931221809313219093E4
S1130D001421E0900B20F0900C20EC0EFD1ECE156B
S1130D10DF0554F580900D2190900E21A0900F21B5
S1130D20B09010218E01000F111F03551A4DF801C8
S1130D30819191918F01BC0180E090E00E94E51DBA
S1130D409B01AC01C501B4010E94E91C4B015C018B
S1130D502196CE15DF055CF360930D2170930E216F
S1130D6080930F219093102110911521D091162179
S1130D70C09117210091182180900720909008209D
S1130D80A0900920B0900A20A5019401612F7D2F25
S1130D908C2F902F0E94971E1816ECF02091112191
S1130DA0309112214091132150911421C501B401B5
S1130DB00E944D1D88237CF020910D2130910E213D
S1130DC040910F2150911021C501B4010E944D1D85
S1130DD088230CF045C0A0901121B0901221E0901E
S1130DE01321F09014212A2D3B2D4E2D5F2D612FC0
S1130DF07D2F8C2F902F0E94971E181624F01A2DE9
S1130E00DB2DCE2D0F2DA0900D21B0900E21E09062
S1130E100F21F09010212A2D3B2D4E2D5F2D612F97
S1130E207D2F8C2F902F0E94971E181624F01A2DB8
S1130E30DB2DCE2D0F2D812F9D2FAC2FB02F809326
S1130E406C2990936D29A0936E29B0936F29809398
S1130E50072090930820A0930920B0930A2014C07F
S1130E6020910320309104204091052050910620C8
S1130E70C501B4010E949B1E609307207093082053
S1130E808093092090930A202091192130911A21EE
S1130E9040911B2150911C216091072070910820E2
S1130EA08091092090910A200E94E81C9B01AC01CA
S1130EB060E070E08FE793E40E94511D4B015C01F8
S1130EC0209115213091162140911721509118211C
S1130ED00E949B1E0E94B91DD62F609397252091D6
S1130EE01121309112214091132150911421C501F7
S1130EF0B4010E949B1E0E94B91DC62F60936A28EC
S1130F0020910D2130910E2140910F2150911021FB
S1130F10C501B4010E949B1E0E94B91D60936B29F8
S1130F208091212190912221FC01EA54FF4DD0832C
S1130F30E0911F21F0912021DF01A05EBF4DCC93F1
S1130F4020911D2130911E21D901AF5EBF4D6C93BC
S1130F5001966EE170E00E94121F8093212190930C
S1130F602221CF01019666E970E00E94121F80934E
S1130F701F2190932021C90101966FE070E00E9427
S1130F80121F80931D2190931E216FE081E190E256
S1130F90EBDDD82F80936B2966E980E290E2E4DDF3
S1130FA0C82F80936A286EE186EB90E2DDDD6091C4
S1130FB0022024E6289FC001112470E00E94121F21
S1130FC0162F60939725A09101202C9FC001112416
S1130FD06A2F70E00E94121F60936A2830910020EB
S1130FE02D9FC0011124632F70E00E94121F862FD1
S1130FF060936B29ECEDF0E220819181921740F02F
S113100020819281921720F0412F80E0E7D620C002
S1131010ECEDF0E221819081921740F021819281E0
S1131020921720F0412F60E0D9D612C0ECEDF0E227
S113103022819081921740F022819181921720F0B1
S113104040E0612FCBD604C0412F682F80E0C6D684
S1131050DF91CF911F910F91FF90EF90BF90AF90D0
S11310609F908F9008952F923F924F925F926F922C
S11310707F928F929F92AF92BF92CF92DF92EF9224
S1131080FF920F931F93CF93DF932F923F924F9230
S11310905F92FF920F931F93CF93DF93C0E7D9E240
S11310A0EEE4F2E0FF2440E865917591088119812E
S11310B0970320010E034F1C10019E035F08300CA0
S11310C0411C5F1CF8035F08300C411C5F1C4992F3
S11310D059924A9549F7DF91CF911F910F91FF9053
S11310E05F904F903F902F9011242F923F926F92D8
S11310F07F92CF93DF93EEE4F6E048E3A591BB271C
S1131100AA0FBB1FA059B64D2D903C90C591DD2769
S1131110CC0FDD1FC059D64D688079807C926E92C9
S1131120288239824A9551F7DF91CF917F906F9051
S11311303F902F902F923F924F925F926F927F92A7
S11311408F929F92AF92BF92CF92DF92EF92FF92D3
S11311500F931F93CF93DF93FF2400E1E02EC0E7AA
S1131160D9E2688079804A805B80759467944301F2
S113117055944794640C751C84189508AC80BD8004
S11311804E805F80B594A794650155944794A40C50
S1131190B51CC418D508688579854A845B8475951F
S11311A067958B0155944794640D751D04191509B1
S11311B08C859D854E845F84959587959C01559477
S11311C04794840D951D241935097594679423015A
S11311D0B594A7946A0C7B1C4A185B089594879471
S11311E05401D594C7948C0C9D1CAC18BD087595FE
S11311F067956B0195958795680F791FC81AD90A69
S113120075946794130175956795660E771E261A73
S1131210370A42E85AE51503C001049FB0011403DC
S11312209F09700D811D9F1D509F700D811D9F1D75
S1131230959487948401880E991E081B190B559464
S11312404794D201D594C7944C0C5D1CAC19BD09CC
S11312503503C001249FB00134039F09700D811D23
S11312609F1D529F700D811D9F1DB594A79465010C
S1131270A80EB91EC81AD90A6992799289929992CC
S113128049925992A992B992299239920993199340
S1131290A993B993C992D992EA9409F062CF00E272
S11312A0C02EDD240AE2902EEEEBF6E000E1A02E43
S11312B0BB2404E0E02EA0E7B9E2ED01CA0DDB1D7A
S11312C08E2C2D903C904880598035942794310180
S11312D055944794640C751C241835082992399246
S11312E07C926E92AC0DBD1D1197EA940881198110
S11312F03C912E914591559165917591150220016E
S1131300049F100114035F08300C411C5F1C509FA4
S1131310300C411C5F1C37023001269F200C311C0D
S1131320461C571C36035F08300C411C5F1C729F1F
S1131330300C411C5F1C0E01CA19DB09288039805E
S1131340359427943101640C751C2418350868827F
S11313507982E0012992399217022001069F100137
S113136016035F08300C411C5F1C709F300C411C3D
S11313705F1C35023001249F2018310846085708A5
S113138034035F1C301841085F08529F301841082D
S11313905F080D01AA19BB092D903C903594279440
S11313A03101640C751C241835087C926E92D001AE
S11313B02D923C921297EA9409F098CFDE01AA1973
S11313C0BB092D903C904880598035942794310175
S11313D055944794640C751C241835082882398266
S11313E07C926E92C50196958795C80FD91FC03718
S11313F0D90540F4DE01CA0DDB1DE82CEA19FB090E
S113140034965FCF85FC06C0EA2CE6945601CC0CDA
S1131410DD1C51CFDF91CF911F910F91FF90EF9081
S1131420DF90CF90BF90AF909F908F907F906F9000
S11314305F904F903F902F9011242F923F924F92A4
S11314405F926F927F928F92FF920F931F93CF932D
S1131450DF93A0E7B9E2CDEAD5E2E0E7FAE24F0193
S1131460FF2440E40D911D91980106C0F4010D91F3
S11314701D91329122914F0111022001009F100110
S113148098035F08300C411C5F1C33023001229F1B
S1131490200C311C461C571CBA035F08300C411C3D
S11314A05F1C1127552061F018E0F201F03428F593
S11314B0330CEE1FFF1F330CEE1FFF1F1A951DC0C8
S11314C0442069F014E0F42DE32DF034B0F4220C40
S11314D0EE1FFF1F220CEE1FFF1F1A95F6CFF1011E
S11314E0F03458F4F03160F4F13078F0F295E2958C
S11314F0EF70EF2BE695F1E008C0EF2FF2E005C0A6
S1131500EE0FFF1FEF2FE068F1E0E25BFC4F049168
S11315102227112321F0000F221F1A95E1F70993C6
S113152029934A9509F0A2CFDF91CF911F910F9192
S1131530FF908F907F906F905F904F903F902F908F
S1131540112428DB1092FE20DF91CF911F910F917F
S1131550FF90EF90DF90CF90BF90AF909F908F90CF
S11315607F906F905F904F903F902F9008951F93BE
S1131570CF93DF93162FC82FD0E0CE010E94061719
S1131580CE010E94E11691E0181390E0892FDF91BB
S1131590CF911F910895CF93DF93CDB7DEB72997ED
S11315A0CDBFDEBF80E89AE1A6E0B0E089839A83EC
S11315B0AB83BC8383E290E0A0E0B0E08D839E83A4
S11315C0AF83B88780E5898760E483E00E946A1569
S11315D0BE016F5F7F4F80E894E00E94BB1AE0E891
S11315E0F4E081818860818378942996CDBFDEBF41
S11315F0DF91CF91089540E059E160E280E496E004
S11316000E94811580E28093B000E0E4F6E08287D6
S113161081E08187E0EAF0E08281816082837894CE
S1131620089541E050E060E280E096E00E94811578
S113163041E050E060E480E096E00E94811541E0E2
S113164050E060E880E096E00E94811541E050E0BF
S113165060E480E696E00E94811541E050E061E09C
S113166080EE97E00E94811541E050E061E080E661
S113167096E00E94811541E050E062E080E696E049
S11316800C94811508951F920F920FB60F92112496
S11316900F931F932F933F934F935F936F937F9376
S11316A08F939F93AF93BF93EF93FF93CF93DF9366
S11316B0CDB7DEB76197CDBFDEBF80E280934C0625
S11316C080912E21882321F0813009F47FC09CC0B1
S11316D0FE013C9686E0DF011D928A95E9F7BE0182
S11316E06F5F7F4F8BE0DB011D928A95E9F785E2FE
S11316F08983EF83F88786E090E089879A8741E0C1
S113170080E894E00E94D01A8D8582FB002700F9BE
S113171010E00093712A012B09F476C0A0E7BAE225
S1131720887790E095958795959587959595879574
S11317308C938E85E82FEF771796EC938E2F90E09D
S1131740FC017097E335F105D8F5EA5AFF4F0C9484
S1131750471F80EA8093232181E035C081EA80938A
S1131760232182E030C082EA8093232183E02BC0CE
S113177083EA8093232184E026C083EA8093232193
S113178084E021C084EA8093232185E01CC084EA9C
S11317908093232185E017C085EA8093232186E086
S11317A012C085EA8093232186E00DC086EA8093E7
S11317B0232187E008C086EA8093232187E003C0C1
S11317C01092232180E080932D211EC0BE016F5F03
S11317D07F4F8BE0FB0111928A95E9F785E28983BB
S11317E004E211E20F83188789E090E089879A87E1
S11317F041E080E894E00E94D01A10922E21D80192
S113180013968C918093D4206196CDBFDEBFDF9177
S1131810CF91FF91EF91BF91AF919F918F917F9164
S11318206F915F914F913F912F911F910F910F9065
S11318300FBE0F901F901895E0E0F8E0848581605A
S1131840848781E08093792A9FB7F894E0E0F2E0FE
S11318508081846080839FBF089581E08093782A8B
S1131860E0E4F8E08485816084872EC30895CF93F3
S1131870DF9380E098E00E947319C0E0D8E08E8185
S11318808C7F8E838E8181608E838981887F89831A
S11318906CE17CE080E098E00E94D71980E590E05C
S11318A08EA39FA38881807F84608883E0EAF0E030
S11318B08281816082837894DF91CF910895CF9360
S11318C0DF93C0E4D8E08E818C7F8E838E8182602A
S11318D08E838981887F89836DE27CE080E498E04F
S11318E00E94D71984E294EF8EA39FA38881807FFE
S11318F086608883E0EAF0E0828182608283789463
S1131900DF91CF91089543E050E068E080E696E0EF
S11319100E94811540E050E064E080E696E00E9479
S1131920811565ED70E280EC99E00E94461CE0ECC4
S1131930F9E0828180638283E0EAF0E0828184605E
S1131940828378940895682F80EC98E00C94231B8C
S11319500895CF93DF93ACEDB0E28C91E3E9FAE222
S1131960808311968C911197818312968C91129792
S113197082838C91818711968C911197828712961C
S11319808C911297838713968C9113978383149663
S11319908C911497848315968C911597858313964F
S11319A08C911397848714968C9114978587159638
S11319B08C911597868716968C9116978683179621
S11319C08C911797878318968C9118978087169611
S11319D08C911697878717968C911797808B1896FA
S11319E08C91818BC0E0D0E0FE01E452FF4D608118
S11319F02196CE010E940617C930D105A9F7E9D175
S1131A00811104C066E083E99AE24AD6DF91CF915E
S1131A1008958091312108958091302110923021D0
S1131A20089581E08093302108951F920F920FB69C
S1131A300F9211242F933F934F935F936F937F9350
S1131A408F939F93AF93BF93EF93FF9380EC98E0B2
S1131A500E942B1B9091342191110EC08F3049F4B8
S1131A6081E08093342196E09093F0208093332199
S1131A7038C01092342135C0292F30E06091F02015
S1131A80462F50E04F5F5F4F24173507F1F4109253
S1131A903421803FA9F420917B2A222361F04BE773
S1131AA05AE2FA0180E09191890F9E2F941B9217BC
S1131AB0D0F3811105C0109233218FEF44DF11C0A0
S1131AC0109233218CE03FDF0CC0F901E658F54D4C
S1131AD080839F5F9093342180917B2A6813809345
S1131AE0F020FF91EF91BF91AF919F918F917F91E2
S1131AF06F915F914F913F912F910F900FBE0F9077
S1131B001F9018951F920F920FB60F9211242F93C6
S1131B103F934F935F936F937F938F939F93AF9371
S1131B20BF93CF93DF93EF93FF93C0E0D0E080ECBB
S1131B3099E00E942B1BFE01EB51FF4D80832196FF
S1131B40CB30D105A1F7E091E5208E2F90E0FC0188
S1131B503197E037F10508F0F9C0E755FF4F0C94D1
S1131B60471F6FEF83E4B2D3A5EEB0E212968C91D7
S1131B701297E3E9FAE2808313968C911397818399
S1131B8014968C911497828312968C911297818764
S1131B9013968C911397828714968C91149783874C
S1131BA015968C911597838316968C91169784833A
S1131BB017968C911797858315968C911597848722
S1131BC016968C911697858717968C91179786870A
S1131BD018968C911897868319968C9119978783F8
S1131BE01A968C911A97808718968C9118978787E4
S1131BF019968C911997808B1A968C91818BC0E0E1
S1131C00D0E0FE01E951FF4D8081FE01E452FF4D19
S1131C10808360812196CE010E940617C930D105C8
S1131C2081F7D7D0811192C066E083E99AE238D572
S1131C308DC06FEF80E54AD38091E720882319F0A7
S1131C40813039F00CC01092312181E08093302131
S1131C507DC081E0809331218093302177C081E081
S1131C60809331218093302171C080913121882368
S1131C7029F01092312181E08093302181E080931A
S1131C802F216FEF23D362C0E091E7208E2F90E0E5
S1131C908730910508F05AC0FC01E75EFE4F0C94B2
S1131CA0471F8091E82090E0809340219093412148
S1131CB04DC08091E82090E08093FC209093FD201B
S1131CC045C08091E82090E08093FA209093FB2017
S1131CD03DC08091E82090E08093F8209093F92013
S1131CE035C08091E82090E08093F6209093F7200F
S1131CF02DC08091E82090E08093F4209093F5200B
S1131D0025C08091E82090E08093F2209093F32006
S1131D101DC08091E7208093F12018C08091E720B6
S1131D208093022013C08091E720809301200EC08D
S1131D308091E7208093002009C0D9D207C0F0D257
S1131D4005C044D303C01BD301C004D381E08093F6
S1131D503221FF91EF91DF91CF91BF91AF919F918C
S1131D608F917F916F915F914F913F912F910F9040
S1131D700FBE0F901F9018950F931F93CF93DF936F
S1131D806115710561F08C01EC01060F171F699153
S1131D9080EC99E00E94231BC017D107C1F7DF91A3
S1131DA0CF911F910F910895982F977061E070E083
S1131DB002C0660F771F9A95E2F7869586958695F9
S1131DC020E2829FC001112442E050E09A5F99C64C
S1131DD008958091E80786958170089520E030E0A9
S1131DE0F901EE0FFF1FE20FF31FED56F54D80834F
S1131DF0618342832F5F3F4F2630310589F766E0C8
S1131E0083E99AE24DC4089580E0E82FF0E09F0151
S1131E10220F331FE20FF31FED56F54D108211828E
S1131E2012828F5F863089F766E083E99AE238C4CC
S1131E300895ACEDB0E28C91E3E9FAE28083119667
S1131E408C911197818312968C91129782831396A9
S1131E508C911397838314968C911497848315968D
S1131E608C911597858316968C9116978683179671
S1131E708C911797878318968C91189780878C91EB
S1131E80818711968C911197828712968C91129763
S1131E90838713968C911397848714968C91149747
S1131EA0858715968C911597868716968C9116972B
S1131EB0878717968C911797808B18968C91818BB6
S1131EC066E0CF01EDC308951092782A8091352100
S1131ED0882359F180913821909139219C01205611
S1131EE035402F35310548F48091FA209091FB203C
S1131EF080933C2190933D2116C0815B94408F3A9E
S1131F00910548F48091F6209091F72080933C212C
S1131F1090933D2108C0809140219091412180936C
S1131F203C2190933D211092352153DF811114C03F
S1131F3080913F2180933E2186E080933F218091D0
S1131F403F210E948D0480E098E00E94731980E490
S1131F5098E00E94A5196DDF80913C2190913D216C
S1131F602091FC203091FD2082179307B8F54CDFB7
S1131F704091F12020913C2130913D216091FC2041
S1131F807091FD20429FC001439F900D11240E9437
S1131F90FE1EE3E9FAE26083118212821382148244
S1131FA015821682178210864091F1206091FC20E0
S1131FB07091FD20429FC001439F900D11240E9407
S1131FC0FE1E61871286138614861586168617866A
S1131FD0108A118A66E0CF0163D364C12091F8208E
S1131FE03091F9208217930708F048C00DDF8091E3
S1131FF0F120E3E9FAE280831182128213821482CF
S1132000158220913C2130913D218091FC209091BA
S1132010FD20A091F1206091F8207091F920A90190
S1132020481B590BA49FC001A59F900D11240E9429
S1132030FE1E6683178210868091F12081871286A6
S113204013861486158616868091FC209091FD20B7
S11320504091F1206091F8207091F920281B390BF0
S1132060429FC001439F900D11240E94FE1E67876A
S1132070108A118A66E0CF0113D314C12091F42091
S11320803091F5208217930708F04CC0BDDE809193
S1132090F120E3E9FAE280831182128220913C214B
S11320A030913D218091F8209091F920A091F12068
S11320B06091F4207091F520A901481B590BA49F4D
S11320C0C001A59F900D11240E94FE1E63831482FB
S11320D015828091F1208683178210868091F120E9
S11320E08187128613868091F8209091F92040917F
S11320F0F1206091F4207091F520281B390B429F48
S1132100C001439F900D11240E94FE1E6487158612
S113211016868091F1208787108A118A66E0CF01A4
S1132120BFD2C0C02091F2203091F32082179307D0
S113213008F094C069DEE3E9FAE2108220913C21C0
S113214030913D218091F6209091F720A091F120CB
S11321506091F2207091F320A901481B590BA49FB0
S1132160C001A59F900D11240E94FE1E618312825E
S113217013828091F6209091F720A091F120609134
S1132180F2207091F320A901481B590BA49FC001B0
S1132190A59F900D11240E94FE1E64831582168251
S11321A08091F6209091F720A091F1206091F22087
S11321B07091F320A901481B590BA49FC001A59F4E
S11321C0900D11240E94FE1E678310861186809153
S11321D0F6209091F720A091F1206091F220709167
S11321E0F320A901481B590BA49FC001A59F900D82
S11321F011240E94FE1E6287138614868091F620A5
S11322009091F720A091F1206091F2207091F32039
S1132210A901481B590BA49FC001A59F900D11242F
S11322200E94FE1E6587168617868091F62090917F
S1132230F7204091F1206091F2207091F320281B47
S1132240390B429FC001439F900D11240E94FE1E32
S1132250608B118A66E0CF0123D224C0D5DDE3E987
S1132260FAE210828091F12081831282138280919C
S1132270F1208483158216828091F1208783108651
S113228011868091F1208287138614868091F12033
S11322908587168617868091F120808B118A66E0E7
S11322A0CF01FED180913C2190913D2101968093F4
S11322B03C2190933D2108951F920F920FB60F92E7
S11322C0112480E280936C069FDDFFCFCF93DF93D0
S11322D000D0CDB7DEB789836A8362E070E0CE01B7
S11322E001964ADD0F900F90DF91CF910895CF931F
S11322F0DF9300D01F92CDB7DEB790913A21809141
S11323003B219B838A838DE4898363E070E0CE0163
S1132310019632DD2396CDBFDEBFDF91CF910895C4
S1132320CF93DF9300D0CDB7DEB780913821909161
S113233039216AE070E00E94121F6A8382E4898373
S113234062E070E0CE01019617DD0F900F90DF91EF
S1132350CF910895CF93DF9300D0CDB7DEB7198224
S11323601A8237DD8A8387E4898362E070E0CE01D4
S1132370019602DD0F900F90DF91CF910895CF93D6
S1132380DF93CDB7DEB72A97CDBFDEBFFE0131960E
S11323908AE0DF011D928A95E9F783E68983319605
S11323A081E090E0DC01A452BF4D2C912193019671
S11323B089309105B9F769E070E0CE010196DCDC63
S11323C02A96CDBFDEBFDF91CF910895CF93DF93DF
S11323D000D0CDB7DEB719821A821BDB8A8380E76F
S11323E0898363E070E0CE010196C6DC0F900F9004
S11323F0DF91CF910895CF93DF9381E090E0E1D412
S1132400CCEDD0E2888382E090E0DBD4898383E062
S113241090E0D7D48A8384E090E0D3D48B8385E0A2
S113242090E0CFD48C8386E090E0CBD48D8387E09A
S113243090E0C7D48E8388E090E0C3D48F8389E092
S113244090E0BFD4888785DADF91CF91089508950D
S1132450982F977061E070E002C0660F771F9A951D
S1132460E2F786958695869520E2829FC001112425
S113247041E050E09A5F45C30895DC0111962C9128
S1132480119798E0E0E4F6E030E422230CF028C051
S11324903583000000000000000000000000000080
S11324A00000000000000000000000000000000028
S11324B00000000000000000000000000000000018
S11324C0000036830000000000000000000000004F
S11324D0000000000000000000000000000026C012
S11324E03583000000000000000000000000000030
S11324F0000000000000000036830000000000001F
S113250000000000000000000000000000000000C7
S113251000000000000000000000000000000000B7
S1132520000000000000000000000000220F915095
S113253009F0ABCF2C9198E0E0E4F6E030E42223FC
S11325400CF028C0358300000000000000000000EB
S11325500000000000000000000000000000000077
S11325600000000000000000000000000000000067
S1132570000000000000368300000000000000009E
S11325800000000000000000000000000000000047
S1132590000026C035830000000000000000000099
S11325A0000000000000000000000000368300006E
S11325B00000000000000000000000000000000017
S11325C00000000000000000000000000000000007
S11325D000000000000000000000000000000000F7
S11325E0220F915009F0ABCF12969C9188E0E0E461
S11325F0F6E020E499230CF028C0258300000000B5
S113260000000000000000000000000000000000C6
S113261000000000000000000000000000000000B6
S113262000000000000000000000000026830000FD
S11326300000000000000000000000000000000096
S1132640000000000000000026C0258300000000F8
S11326500000000000000000000000000000000076
S113266000002683000000000000000000000000BD
S11326700000000000000000000000000000000056
S11326800000000000000000000000000000000046
S1132690000000000000990F815009F0ABCF0895AD
S11326A00F931F93CF93DF93662351F0062FC82F08
S11326B0D92F10E0CE01E1DE1F5F23961013FACF6D
S11326C080E48093460689EF90E00197F1F700C01B
S11326D00000DF91CF911F910F910895CF93DF9365
S11326E0CDB7DEB72A97CDBFDEBFCDD188E00E943B
S11326F0ED03A8950E94010406D986E1A9DE84DBD6
S113270089E752DB80E090E05CD3898381E090E04C
S113271058D38A8382E090E054D38B8383E090E0A3
S113272050D38C8384E090E04CD38D8385E090E09B
S113273048D38E8386E090E044D38F8387E090E093
S113274040D3888788E090E03CD3898789E090E093
S113275038D38A870E94110B0E94CB0A0E94FB0A7D
S11327604ADE11E010933F2180913F210E948D04A5
S11327701093352180E098E0E8D580E498E0B3D563
S113278080913F210E940F040E947F0598D86FD842
S113279020DB811111C080913F2180933E2186E08E
S11327A080933F2180913F210E948D0480E498E032
S11327B0CCD580E098E097D50F2EF0E6CF2EF6E04A
S11327C0DF2EF02D6894BB24B1F811E00F2EF0EE4B
S11327D08F2EF7E09F2EF02D00E40F2EE12CF6E073
S11327E0FF2EF02D6894772477F86894AA24A5F82E
S11327F06894552452F80F2EF6E06F2EF02DA8950C
S113280080912321882309F472C0E09123218E2F23
S113281090E0FC01E05AF109E730F10508F065C0E9
S1132820E05EFE4F0C94471FF701A582FFE72AE103
S113283086E0F15020408040E1F700C00000F7013D
S1132840A68253C0F7010583FFE72AE186E0F15031
S113285020408040E1F700C00000F701068345C036
S1132860F7017582FFE72AE186E0F15020408040BD
S1132870E1F700C00000F701768237C0F601058356
S1132880FFE72AE186E0F15020408040E1F700C0F4
S11328900000F601068329C0F4011583FFE72AE14D
S11328A086E0F15020408040E1F700C00000F401D0
S11328B016831BC0F6011583FFE72AE186E0F15079
S11328C020408040E1F700C00000F60116830DC0EF
S11328D0F601B582FFE72AE186E0F150204080400E
S11328E0E1F700C00000F601B6821092232171DAEC
S11328F08823F1F080913F21813009F480CF4FEF9C
S113290060E080E06BDA10922F2180913F21809368
S11329103E2110933F2180913F210E948D0410930A
S1132920352180E098E011D580E498E0DCD467CFCD
S113293080913F21813089F480913F2180933E2111
S113294060923F2180913F210E948D0480E498E0B1
S1132950FCD480E098E0C7D46CDA5BD8882349F0D3
S113296080913F21823029F080913F21843009F009
S113297058D880912F21882379F080913F2180932A
S11329803E2110923F2180E098E0DFD460DD40E0FA
S113299060E080E023DA33CF3FD8882351F139D87F
S11329A08823A1F01093422180913F2180933E21FE
S11329B0B0923F2180913F210E948D0480E098E0F5
S11329C092D4612F80E00E94B70A19CF109242215D
S11329D080913F2180933E2160923F2180913F214D
S11329E00E948D0411DA60E080E00E94B70A21DAC7
S11329F006CF80914221813009F001CF8091FE20E1
S1132A00882309F4FCCE80913F21823081F40E9416
S1132A10330880913F2180933E2150923F21809141
S1132A203F210E948D0480E098E05DD429C080910C
S1132A303F21843029F50E943308CBD9882399F0AB
S1132A4080913F2180933E2110933F2180913F212B
S1132A500E948D041093352180E098E076D480E4C0
S1132A6098E041D40DC080913F2180933E21B092E3
S1132A703F2180913F210E948D0480E098E033D46F
S1132A801092FE20BCCE8FEF809370008093710073
S1132A908093720080937300809374008093750018
S1132AA0809376009FB7F894E0E5F0E0808182603F
S1132AB080839FBF818181FFFDCF61E080E490E04E
S1132AC07AD19FB7F894E0E5F0E080818E7F80832F
S1132AD09FBF08959FB7F894E82FF0E0E059FF4FA7
S1132AE060958081682360839FBF08959FB7F894A1
S1132AF0E82FF0E0E059FF4F8081682B60839FBF8F
S1132B000895CF93DF93FC01709620E030E0C62F48
S1132B10D0E0DE01022E02C0B595A7950A94E2F733
S1132B20A0FD50832F5F3F4F31962830310589F740
S1132B3040FF0AC041FF03C0FC01658302C0FC01E1
S1132B406683FC01618302C0FC016283DF91CF9143
S1132B5008959C019FB7F8942115324021F46093A5
S1132B60AB2A7093AC2A9FBF08958115924059F403
S1132B708091432191E0980F90934321811103C0E8
S1132B8062E081E0A7CF08958115924051F48091CD
S1132B904321815080934321811103C062E081E08D
S1132BA0A5CF08951F93CF93DF93EC011FB7F8943B
S1132BB0DCDF8881816088831FBF9FB7F894E5EAD2
S1132BC0FAE281818F5F81839FBFDF91CF911F9153
S1132BD00895CF93CFB7F894FC0120812E7F2083F2
S1132BE0D3DFCFBF9FB7F894E5EAFAE28181815041
S1132BF081839FBFCF9108951F920F920FB60F92BA
S1132C0011242F933F934F935F936F937F938F93ED
S1132C109F93AF93BF93EF93FF93409124025091FE
S1132C202502E091AB2AF091AC2A61E080E092E0C9
S1132C300995FF91EF91BF91AF919F918F917F91F2
S1132C406F915F914F913F912F910F900FBE0F9015
S1132C501F901895DF92EF92FF920F931F93CF93DB
S1132C60DF93811522E0920761F58B01EC0161E2AB
S1132C7070E082E0F0D0E82EF12C60E270E082E0B7
S1132C80EAD0FE2CEE24E82ADFB6F894CE016DDFFC
S1132C908881817092E09883EC86FD86F801248116
S1132CA03581288F398F91819A8393819C83928176
S1132CB09B8390819983968198878883CE0164DF72
S1132CC0DFBEDF91CF911F910F91FF90EF90DF90C6
S1132CD00895FF920F931F93CF93DF93EC018B0121
S1132CE0FFB6F89442DF888D998DF801848395832B
S1132CF08A8181838C8183838B8182838981808390
S1132D0088858683CE0140DFFFBEDF91CF911F917E
S1132D100F91FF900895FF920F931F93CF93DF932A
S1132D20EC018A01FFB6F89420DFF801808188A3C2
S1132D3082818AA3818189A383818EA384818FA3C5
S1132D40858188A7868189A787818AA780858BA7A3
S1132D5081858CA7CE0118DFFFBEDF91CF911F9133
S1132D600F91FF900895FF920F931F93CF93DF93DA
S1132D70EC018A01FFB6F894F8DE88A1F80180839B
S1132D808AA1828389A181838EA183838FA1848375
S1132D9088A5858389A586838AA587838BA5808753
S1132DA08CA58187CE01F0DEFFBEDF91CF911F910C
S1132DB00F91FF9008951BBEFC0128ED24BF608392
S1132DC008959C01E0ECF1E097859923ECF3F90177
S1132DD0F05F80810895E0ECF1E087858823ECF3CF
S1132DE08091CF0181FF07C086E38093CA0161E02F
S1132DF08BEC91E0E0CF0895E0ECF1E09785992326
S1132E00ECF3E82FF0E0F05F60830895FF920F93F6
S1132E101F93CF93DF93182FF92EC62F0091CA0169
S1132E20DADFE0ECF1E027852223ECF36C2F812F2D
S1132E30E3DFC0ECD1E01A82F982188385E38A8744
S1132E4061E08BEC91E0B7DF0A87DF91CF911F91AE
S1132E500F91FF9008954091CA01E62FF72F8093B8
S1132E60CA0184914093CA0108951F920F920FB62C
S1132E700F9211242F933F934F935F936F937F93FC
S1132E808F939F93AF93BF93EF93FF93E0915E2152
S1132E90F0915F21309709F00995FF91EF91BF916F
S1132EA0AF919F918F917F916F915F914F913F91DE
S1132EB02F910F900FBE0F901F9018951F920F9295
S1132EC00FB60F9211242F933F934F935F936F93F9
S1132ED07F938F939F93AF93BF93EF93FF93E0916F
S1132EE05C21F0915D21309709F00995FF91EF91F4
S1132EF0BF91AF919F918F917F916F915F914F910E
S1132F003F912F910F900FBE0F901F9018951F9215
S1132F100F920FB60F9211242F933F934F935F9309
S1132F206F937F938F939F93AF93BF93EF93FF938D
S1132F30E0915A21F0915B21309709F00995FF91B6
S1132F40EF91BF91AF919F918F917F916F915F911D
S1132F504F913F912F910F900FBE0F901F90189596
S1132F601F920F920FB60F9211242F933F934F93FA
S1132F705F936F937F938F939F93AF93BF93EF93DD
S1132F80FF93E0915821F0915921309709F0099568
S1132F90FF91EF91BF91AF919F918F917F916F912D
S1132FA05F914F913F912F910F900FBE0F901F9003
S1132FB018951F920F920FB60F9211242F933F93DF
S1132FC04F935F936F937F938F939F93AF93BF932D
S1132FD0EF93FF93E0915621F0915721309709F038
S1132FE00995FF91EF91BF91AF919F918F917F913F
S1132FF06F915F914F913F912F910F900FBE0F9062
S11330001F9018951F920F920FB60F9211242F93B1
S11330103F934F935F936F937F938F939F93AF935C
S1133020BF93EF93FF93E0915421F0915521309792
S113303009F00995FF91EF91BF91AF919F918F9105
S11330407F916F915F914F913F912F910F900FBEA0
S11330500F901F9018951F920F920FB60F92112484
S11330602F933F934F935F936F937F938F939F938C
S1133070AF93BF93EF93FF93E0915221F0915321CB
S1133080309709F00995FF91EF91BF91AF919F910E
S11330908F917F916F915F914F913F912F910F90FD
S11330A00FBE0F901F9018951F920F920FB60F929C
S11330B011242F933F934F935F936F937F938F9339
S11330C09F93AF93BF93EF93FF93E0915021F091BF
S11330D05121309709F00995FF91EF91BF91AF917C
S11330E09F918F917F916F915F914F913F912F911C
S11330F00F900FBE0F901F9018951F920F920FB64E
S11331000F9211242F933F934F935F936F937F9369
S11331108F939F93AF93BF93EF93FF93E0914E21CF
S1133120F0914F21309709F00995FF91EF91BF91EC
S1133130AF919F918F917F916F915F914F913F914B
S11331402F910F900FBE0F901F9018951F920F9202
S11331500FB60F9211242F933F934F935F936F9366
S11331607F938F939F93AF93BF93EF93FF93E091DC
S11331704C21F0914D21309709F00995FF91EF9181
S1133180BF91AF919F918F917F916F915F914F917B
S11331903F912F910F900FBE0F901F9018951F9283
S11331A00F920FB60F9211242F933F934F935F9377
S11331B06F937F938F939F93AF93BF93EF93FF93FB
S11331C0E0914A21F0914B21309709F00995FF9144
S11331D0EF91BF91AF919F918F917F916F915F918B
S11331E04F913F912F910F900FBE0F901F90189504
S11331F01F920F920FB60F9211242F933F934F9368
S11332005F936F937F938F939F93AF93BF93EF934A
S1133210FF93E0914821F0914921309709F00995F5
S1133220FF91EF91BF91AF919F918F917F916F919A
S11332305F914F913F912F910F900FBE0F901F9070
S113324018951F920F920FB60F9211242F933F934C
S11332504F935F936F937F938F939F93AF93BF939A
S1133260EF93FF93E0914621F0914721309709F0C5
S11332700995FF91EF91BF91AF919F918F917F91AC
S11332806F915F914F913F912F910F900FBE0F90CF
S11332901F9018951F920F920FB60F9211242F931F
S11332A03F934F935F936F937F938F939F93AF93CA
S11332B0BF93EF93FF93E0914421F0914521309720
S11332C009F00995FF91EF91BF91AF919F918F9173
S11332D07F916F915F914F913F912F910F900FBE0E
S11332E00F901F901895CF93CFB7F894282F392FAC
S11332F0211588E0380739F461E083E0EBDB64E012
S113330083E0E8DB17C0203488E0380739F462E052
S113331083E0E0DB64E083E0DDDB0CC02034394093
S113332039F462E084E0D6DB64E084E0D3DB02C0FD
S1133330CFBF09C09FB7F894E5EAFAE281818F5FB5
S113334081839FBFCFBFCF910895CF93CFB7F89418
S11333503FB7F894E5EAFAE22181215021833FBF87
S1133360282F392F211588E0380739F461E083E0EC
S1133370BDDB64E083E0BADB17C0203488E03807A3
S113338039F462E083E0B2DB64E083E0AFDB0CC0DD
S11333902034394039F461E084E0A8DB64E084E05F
S11333A0A5DB02C0CFBF01C0CFBFCF910895811567
S11333B028E0920729F460935E2170935F210895B9
S11333C0803428E0920729F46093522170935321AA
S11333D008958034994021F460934A2170934B21DD
S11333E008951F920F920FB60F9211242F933F93BB
S11333F04F935F936F937F938F939F93AF93BF93F9
S1133400CF93DF93EF93FF93E0916021F0916121DB
S1133410848183FF08C08860848383E0838386EF8C
S113342080936A2195C0982F947131F083E083834F
S11334308FEF80936A218CC086FF43C0C0E6D1E23F
S1133440AA81BB818C819D8114962D913C91159705
S1133450821793076CF49C012F5F3F4F20936421E4
S113346030936521A80FB91F11968C91878370C082
S1133470809166219091672118962D913C9119971E
S113348082179307C8F420916821222321F08681B2
S1133490816086835DC016962D913C911797AC018F
S11334A04F5F5F4F4093662150936721D901A80F66
S11334B0B91F8C9187834CC083E0838310926A2167
S11334C047C088230CF041C0C0E6D1E2AA81BB8189
S11334D08E819F8118962D913C911997821793079D
S11334E070F516966D917C9117979C012F5F3F4F55
S11334F020936621309367214781860F971FEC0143
S11335004883EB01888190E0019618964D915C9177
S113351019974817590721F018968D939C9319977A
S113352018968D919C9119972817390718F482E001
S113353083830EC087E0838310926A2109C083E0ED
S1133540838389EF80936A2103C08BEF80936A2180
S1133550FF91EF91DF91CF91BF91AF919F918F91A7
S11335607F916F915F914F913F912F910F900FBE7B
S11335700F901F901895FC01DB0114968C918583A4
S113358088EB818381E08483E0E6F1E21186128690
S1133590E0EAF0E0828182608283789480E008959A
S11335A0DC01892B09F449C06115710509F447C090
S11335B0FB01928580916921882319F09923F1F305
S11335C040C08FB7F894E0E6F1E291E0918790E88B
S11335D092878FBFA083B183628373831482158221
S11335E0168217824087FB018081880F24813581F0
S11335F0232B11F4411103C016968C9303C08160F0
S113360016968C93E0E6F1E282858038E9F3E09146
S11336106021F091612184818370813049F0A0E6BA
S1133620B1E2ED91FC911197848183708130C9F7E7
S1133630E0E6F1E282851186089588EF089588EF27
S1133640089586EF0895FC01918195FFFDCF608375
S113365080E090E00895FC0191819923ECF780814A
S113366008952F923F924F925F926F927F928F9222
S11336709F92AF92BF92CF92DF92EF92FF920F93FD
S11336801F93CF931C012A013B0148015901D90121
S1133690C801689412F8B695A795979587951694DE
S11336A0D1F7B901A801032E36E1769567955795B0
S11336B047953A95D1F7302DF101238122FD08C0B9
S11336C0B695A79597958795769567955795479558
S11336D084159505A605B70508F4AAC04416550631
S11336E06606770608F4A6C0F101838182FD04C052
S11336F0440C551C661C771CC501B401A30192013E
S1133700A4D32F3F31054105510508F495C0C12CC0
S1133710D12C7601CA94C9EF05C02C153D054E0580
S11337205F0568F0CC0CDD1CEE1CFF1CCD3F14F4CF
S11337306894C0F8CF5FC73081F78C2F54C08C2FAA
S1133740CC230CF050C0D301C201880F991FAA1FCB
S1133750BB1F880F991FAA1FBB1F880F991FAA1F81
S1133760BB1F85017401E81AF90A0A0B1B0BD80167
S1133770C701CE3FECF42DEF3FEF2C1B3109C7FD01
S1133780339504C0880F991FAA1FBB1F2A95D2F72F
S113379073016201F694E794D794C794BC01CD01F8
S11337A06C0D7D1D8E1D9F1DA30192014ED336C04D
S11337B023E02C0F8301720104C0EE0CFF1C001FD8
S11337C0111F2A95D2F7A801970167017801F69491
S11337D0E794D794C794BC01CD016C0D7D1D8E1D5B
S11337E09F1D33D31BC08D5FA301920104C0220F20
S11337F0331F441F551F8A95D2F7DA01C901B695C4
S1133800A79597958795BC01CD01680D791D8A1DF3
S11338109B1D1BD32150310941095109832F8F70FE
S1133820C295C07FC82BF101C783268381E01CC0E9
S113383080E01AC080E018C0D301C201880F991F2C
S1133840AA1FBB1F880F991FAA1FBB1F880F991F90
S1133850AA1FBB1F85017401E81AF90A0A0B1B0B86
S1133860D801C701C9EF87CFCF911F910F91FF9066
S1133870EF90DF90CF90BF90AF909F908F907F900C
S11338806F905F904F903F902F9008950F931F93E8
S1133890CF93DF93EC018B01892B09F477C0C11519
S11338A084E0D80721F464E080E014D96FC0C03804
S11338B0E1E0DE0721F462E080E00CD967C0C115C5
S11338C0F1E0DF0721F461E080E004D95FC0C03893
S11338D083E0D80721F461E081E0FCD857C0C1152A
S11338E0E2E0DE0721F462E081E0F4D84FC0C115C4
S11338F0F3E0DF0721F464E081E0ECD847C0C115B0
S113390088E0D80721F461E083E0E4D83FC0C03404
S1133910E8E0DE0721F462E083E0DCD837C0C0349D
S1133920F9E0DF0721F462E084E0D4D82FC0C03B83
S113393088E0D80721F464E083E0CCD827C0C03EF7
S1133940E8E0DE0721F468E083E0C4D81FC0C03C8F
S1133950F8E0DF0721F460E183E0BCD817C0C03C85
S113396089E0D80721F460E184E0B4D80FC0C038FE
S1133970E4E0DE0721F460E483E0ACD807C0C0369D
S1133980F4E0DF0719F460E880E0A4D88C818F7339
S11339908C83F80194818581892B9681911198E01B
S11339A0892B8C83F801408151816281738100E00D
S11339B018E428EE31E0CE0154DE9B8198609B83AD
S11339C09B8190619B83DF91CF911F910F9108950B
S11339D05058BB27AA270ED070C161D130F066D1F0
S11339E020F031F49F3F11F41EF456C10EF4E0951B
S11339F0E7FB4CC1E92F72D180F3BA176207730752
S1133A008407950718F071F49EF58AC10EF4E095C9
S1133A100B2EBA2FA02D0B01B90190010C01CA0184
S1133A20A0011124FF27591B99F0593F50F4503E2F
S1133A3068F11A16F040A22F232F342F4427585F21
S1133A40F3CF469537952795A795F0405395C9F739
S1133A507EF41F16BA0B620B730B840BBAF09150F1
S1133A60A1F0FF0FBB1F661F771F881FC2F70EC090
S1133A70BA0F621F731F841F48F487957795679563
S1133A80B795F7959E3F08F0B3CF9395880F08F04C
S1133A909927EE0F979587950895D4D008F481E07F
S1133AA008950CD00AC102D140F0F9D030F021F4CD
S1133AB05F3F19F0EBC0511134C1EEC00FD198F340
S1133AC09923C9F35523B1F3951B550BBB27AA279B
S1133AD062177307840738F09F5F5F4F220F331F0D
S1133AE0441FAA1FA9F333D00E2E3AF0E0E830D0D9
S1133AF091505040E695001CCAF729D0FE2F27D0DC
S1133B00660F771F881FBB1F261737074807AB07A9
S1133B10B0E809F0BB0B802DBF01FF2793585F4F1E
S1133B202AF09E3F510568F0B1C0FBC05F3FECF343
S1133B30983EDCF3869577956795B795F7959F5FE3
S1133B40C9F7880F911D9695879597F90895E1E037
S1133B50660F771F881FBB1F621773078407BA0796
S1133B6020F0621B730B840BBA0BEE1F88F7E095F1
S1133B700895BCD088F09F5790F0B92F9927B7517A
S1133B80A0F0D1F0660F771F881F991F1AF0BA951D
S1133B90C9F712C0B13081F0C3D0B1E00895C0C0FC
S1133BA0672F782F8827B85F39F0B93FCCF3869513
S1133BB077956795B395D9F73EF490958095709570
S1133BC061957F4F8F4F9F4F0895E89409C097FBED
S1133BD03EF490958095709561957F4F8F4F9F4FE0
S1133BE09923A9F0F92F96E9BB279395F695879524
S1133BF077956795B795F111F8CFFAF4BB0F11F4E7
S1133C0060FF1BC06F5F7F4F8F4F9F4F16C088238D
S1133C1011F096E911C0772321F09EE8872F762FC3
S1133C2005C0662371F096E8862F70E060E02AF004
S1133C309A95660F771F881FDAF7880F96958795F0
S1133C4097F90895990F0008550FAA0BE0E8FEEFC5
S1133C5016161706E807F907C0F012161306E4074C
S1133C60F50798F0621B730B840B950B39F40A2645
S1133C7061F0232B242B252B21F408950A2609F423
S1133C80A140A6958FEF811D811D089597F99F6727
S1133C9080E870E060E008959FEF80EC08950024D0
S1133CA00A941616170618060906089500240A949D
S1133CB012161306140605060895092E0394000C23
S1133CC011F4882352F0BB0F40F4BF2B11F460FFB2
S1133CD004C06F5F7F4F8F4F9F4F089557FD9058DB
S1133CE0440F551F59F05F3F71F04795880F97FBBC
S1133CF0991F61F09F3F79F0879508951216130676
S1133D001406551FF2CF4695F1DF08C016161706A4
S1133D101806991FF1CF86957105610508940895D9
S1133D20E894BB2766277727CB0197F908958ADFA4
S1133D3008F48FEF08950BD0C0CFB1DF28F0B6DFC1
S1133D4018F0952309F0A2CFA7CF1124EACFC6DF3C
S1133D50A0F3959FD1F3950F50E0551F629FF0019A
S1133D60729FBB27F00DB11D639FAA27F00DB11DF3
S1133D70AA1F649F6627B00DA11D661F829F22277C
S1133D80B00DA11D621F739FB00DA11D621F839F03
S1133D90A00D611D221F749F3327A00D611D231FD9
S1133DA0849F600D211D822F762F6A2F11249F5727
S1133DB050408AF0E1F088234AF0EE0FFF1FBB1F4A
S1133DC0661F771F881F91505040A9F79E3F5105E9
S1133DD070F05CCFA6CF5F3FECF3983EDCF38695A2
S1133DE077956795B795F795E7959F5FC1F7FE2B94
S1133DF0880F911D9695879597F90895AA1BBB1B6B
S1133E0051E107C0AA1FBB1FA617B70710F0A61BD6
S1133E10B70B881F991F5A95A9F780959095BC01F7
S1133E20CD01089597FB072E16F4009406D077FD74
S1133E3008D0E4DF07FC05D03EF4909581959F4FB0
S1133E400895709561957F4F0895A1E21A2EAA1BDB
S1133E50BB1BFD010DC0AA1FBB1FEE1FFF1FA21736
S1133E60B307E407F50720F0A21BB30BE40BF50B33
S1133E70661F771F881F991F1A9469F760957095BC
S1133E80809590959B01AC01BD01CF010895EE0F83
S1113E90FF1F0590F491E02D0994F894FFCFE4
S1133E9E6464646666663F0000803F6B0012000334
S1133EAE0080808080808080808080808080808080
S1133EBE80808080808080808080808080808080F0
S1133ECE80808080808080808080808080808080E0
S1133EDE80808080808080808080808080808080D0
S1133EEE80808080808080808080808080808080C0
S1133EFE80808080808080808080808080808080B0
S1133F0E808080808080808080808080808080809F
S1133F1E808080808080808080808080808080808F
S1133F2E808080808080808080808080808080807F
S1133F3E808080808080808080808080808080806F
S1133F4E808080808080808080808080808080805F
S1133F5E808080808080808080808080808080804F
S1133F6E808080800100960000030000FF000000A6
S1133F7EFF000000FF8080808080808080808080B1
S1113F8E06604038E02E302A201CC012600964
S9030000FC
