S00C0000776561722E7372656369
S1130000CEC30000E9C30000E7C30000E5C300005D
S1130010E3C30000E1C30000DFC30000DDC3000050
S1130020DBC300000C94470BD7C300000C94FC1AEC
S11300300C9440180C9469180C9492180C94BB18E6
S11300400C94E4180C940D190C9436190C945F1943
S11300500C9488190C94B119BFC300000C94170DAB
S1130060BBC30000B9C30000B7C30000B5C30000A0
S1130070B3C30000B1C30000AFC30000ADC30000B0
S1130080ABC30000A9C300000C9407170C94111211
S11300900C94DA190C94031A0C942C1A0C94551A17
S11300A00C94840D99C3000097C30000AB0BB00BF4
S11300B0E20BE20BE20BE20BE20BE20BE20BE20BD4
S11300C0E20BE20BE20BE20BE20BE20BB50BE20BF1
S11300D0E20BE20BE20BE20BE20BE20BE20BE20BB4
S11300E0E20BE20BE20BE20BE20BE20BE20BBA0BCC
S11300F0BF0BE20BE20BE20BE20BE20BE20BE20BB7
S1130100E20BE20BE20BE20BE20BE20BE20BC40BA1
S1130110C90BE20BE20BE20BE20BE20BE20BE20B8C
S1130120E20BE20BE20BE20BE20BE20BE20BCE0B77
S1130130D30BE20BE20BE20BE20BE20BE20BE20B62
S1130140E20BE20BE20BE20BE20BE20BE20BD80B4D
S1130150DD0B330E420E860E8B0E900E950EA30E03
S1130160A30EA30EA30EA30EA30EA30EA30EA30E03
S1130170A30EA30EA30EA30EA30EA30EA30EA30EF3
S1130180A30EA30EA30EA30EA30EA30EA30EA30EE3
S1130190A30EA30EA30EA30EA30EA30EA30EA30ED3
S11301A0A30EA30EA30EA30EA30EA30EA30EA30EC3
S11301B0A30EA30EA30EA30EA30EA30EA30EA30EB3
S11301C0A30EA30EA30EA30EA30EA30EA30EA30EA3
S11301D0A30EA30E9C0EB20DA30EA30EA30EA20E8D
S11301E0A30EA30EA30EA30EA30E9A0EA30EA30E8C
S11301F0170EA30EA30EA30EA30EA30EA30EA30EFF
S1130200A30EA30EA30EA30EA30EA30EA30EA30E62
S1130210A30EA30EA30EA00EA30EA30EA30EA30E55
S1130220A30EA30EA30EA30EA30EA30EA30EA30E42
S11302309E0E4E0E560E5E0E660E6E0E760E7E0EE2
S113024007155C156D153A1518154B152915000081
S113025014005000B4004001F301CD02CD03F304B7
S11302603D06AD073F09F40AC90CBF0ED4100713AD
S11302705515BE17411ADB1C8B1F502227250F284A
S1130280062B0A2E193132345237773AA03DCB402F
S1130290F5431C473F4A5C4D70507A537856675972
S11302A0475C155FCF61756403677969D66B166E19
S11302B03A703F722674EB758F770F796D7AA57B50
S11302C0B87CA57D6C7E0B7F837FD37FFB7FFB7F18
S11302D0D37F837F0B7F6C7EA57DB87CA57B6D7AF5
S11302E00F798F77EB7526743F723A70166ED66B62
S11302F0796903677564CF61155F475C6759785600
S11303007A5370505C4D3F4A1C47F543CB40A03DA7
S1130310773A5237323419310A2E062B0F28272503
S113032050228B1FDB1C411ABE1755150713D4101E
S1130330BF0EC90CF40A3F09AD073D06F304CD0313
S1130340CD02F3014001B40050001400000000018C
S1130350010202020203030303030304040404046A
S11303600404040505050505050505050506060639
S11303700606060606060606060707070707070712
S113038007070707070707080808080808080808F0
S113039008080808080808090909090909090909D0
S11303A00909090909090909090A0A0A0A0A0A0AB2
S11303B00A0A0A0A0A0A0A0A0A0A0A0A0A0B0B0B96
S11303C00B0B0B0B0B0B0B0B0B0B0B0B0B0B0B0B79
S11303D00B0B0B0C0C0C0C0C0C0C0C0C0C0C0C0C5C
S11303E00C0C0C0C0C0C0C0C0C0C0C0D0D0D0D0D44
S11303F00D0D0D0D0D0D0D0D0D0D0D0D0D0D0D0D29
S11304000D0D0D0D0D0E0E0E0E0E0E0E0E0E0E0E0D
S11304100E0E0E0E0E0E0E0E0E0E0E0E0E0E0E0EF8
S11304200E0F0F0F0F0F0F0F0F0F0F0F0F0F0F0FD9
S11304300F0F0F0F0F0F0F0F0F0F0F0F0F0F0F10C7
S113044010101010101010101010101010100006C2
S1130450080A0B0D0E0F101112131414151617178A
S11304601819191A1B1B1C1C1D1D1E1E1F1F2020C2
S11304702121222223232424252526262627272832
S1130480282829292A2A2A2B2B2B2C2C2D2D2D2EBA
S11304902E2E2F2F2F303030313131323232333350
S11304A033343434343535353636363737373738F0
S11304B03838393939393A3A3A3B3B3B3B3C3C3C96
S11304C03C3D3D3D3D3E3E3E3E3F3F3F3F40000BB9
S11304D0101417191C1E2022242627292A2C2D2FFC
S11304E030313334353637393A3B3C3D3E3F404179
S11304F04243444546474848494A4B4C4D4E4E4F6B
S1130500505152525354555556575858595A5B5B8B
S11305105C5D5D5E5F5F60616162636364656566C7
S113052066676868696A6A6B6B6C6D6D6E6E6F6F17
S11305307071717272737374747576767777787874
S113054079797A7A7B7B7C7C7D7D7E7E7F7F0010CF
S1130550171C2024272A2D303335373A3C3E40429D
S1130560444648494B4D4E505253555658595B5C7E
S11305705D5F60616364656668696A6B6D6E6F7008
S113058071727374767778797A7B7C7D7E7F8081D3
S113059082838485868788898A8B8B8C8D8E8F90C5
S11305A091929394949596979899999A9B9C9D9ED1
S11305B09E9FA0A1A2A2A3A4A5A6A6A7A8A9A9AAF2
S11305C0ABACACADAEAFAFB0B1B1B2B3B4B4B5B621
S11305D0B6B7B8B9B9BABBBBBCBDBDBEBFBFC0C15D
S11305E0C1C2C3C3C4C5C5C6C7C7C8C8C9CACACBA4
S11305F0CCCCCDCECECFCFD0D1D1D2D2D3D4D4D5F2
S1130600D5D6D7D7D8D8D9DADADBDBDCDDDDDEDE48
S1130610DFDFE0E1E1E2E2E3E3E4E5E5E6E6E7E7A4
S1130620E8E8E9EAEAEBEBECECEDEDEEEEEFEFF007
S1130630F1F1F2F2F3F3F4F4F5F5F6F6F7F7F8F86E
S1130640F9F9FAFAFBFBFCFCFDFDFEFEFFFF700767
S1130650780F74177C1F72277A2F76377E3F714785
S1130660794F75577D5F73677B6F6003680B641305
S11306706C1B62236A2B66336E3B6143694B655383
S11306806D5B5005580D54155C1D52255A2D563579
S11306905E3D5145594D4001480944114C194221D0
S11306A04A2946314E393006380E34163C1E32265D
S11306B03A2E2002280A24122C1A1004180C42760E
S11306C0FC30825A825AFC3042768A7DF91842768E
S11306D0FC306E6A1D47825A825A1D476E6AFC308E
S11306E04276F9188A7D627F8C0C8A7DF9187D7AAE
S11306F028254276FC30E370573C6E6A1D47F2624F
S11307003451825A825A3451F2621D476E6A573C00
S1130710E370FC30427628257D7AF9188A7D8C0CAA
S1130720627FD97F4806627F8C0C9D7EC8128A7DC9
S1130730F9182A7C1A1F7D7A282585781F2B427682
S1130740FC30B673BA36E370573CCA6DCE416E6A5C
S11307501D47D066404CF2623451D75EF655825A3A
S1130760825AF655D75E3451F262404CD0661D472A
S11307706E6ACE41CA6D573CE370BA36B673FC302C
S113078042761F2B857828257D7A1A1F2A7CF91832
S11307908A7DC8129D7E8C0C627F4806D97F112405
S11307A01FBECFEFCDBFDFE2DEBF11E2A0E0B0E2BB
S11307B0E6EBF0E402C005900D92AE33B107D9F731
S11307C02AE2AEE3B1E201C01D92AD3EB207E1F709
S11307D00E9466140C94592013CC1F93CF93DF937B
S11307E0CDB7DEB76197CDBFDEBF182FBE016F5FF7
S11307F07F4F80E092E00E94741789819A819F78EC
S113080092619A8392E09C83817E806189831B82BA
S11308108FB7F89498E0E0E0F2E090878FBFBE01D4
S11308206F5F7F4F80E092E00E943517AE01485F12
S11308305F4F61E080E092E00E94BE171430B9F08F
S113084028F4113041F0123061F021C01530A9F0C4
S11308501630C1F01CC0198A81E0888780E289873C
S113086016C0198A8AE0888788E0898710C0198AA7
S11308708AE0888783E189870AC081E0888780E6E7
S1130880898705C0188688E0898786E4898B8A85EC
S11308901C86807F8A87AE01485F5F4F61E080E0FD
S11308A092E00E94961780E092E00E94DD168FB7D6
S11308B0F894E0E0F2E09081946090838FBF8681A9
S11308C080FFFDCF81E0E0E0F2E086836196CDBF5A
S11308D0DEBFDF91CF911F9108951F93CF93DF93D4
S11308E0CDB7DEB72A97CDBFDEBF182FAE014F5F5D
S11308F05F4F61E080E092E00E94BE171430B9F0CF
S113090028F4113041F0123061F021C01530A9F003
S11309101630C1F01CC01A8681E0898380E28A8384
S113092016C01A868AE0898388E08A8310C01A86F2
S11309308AE0898383E18A830AC081E0898380E62F
S11309408A8305C0198288E08A8386E48A87AE0197
S11309504F5F5F4F61E080E092E00E9496172A9615
S1130960CDBFDEBFDF91CF911F91089580917F218C
S1130970843009F44CC028F4813051F0823009F1FC
S11309800895853009F469C0863009F475C0089566
S11309900E94F30E811192C080917F2180937E2169
S11309A086E080937F2180917F2197DF80E098E02B
S11309B00E947E1A80E498E00E94B01A0C944E0FB4
S11309C0089580913F21909140219C012F5F3F4FDA
S11309D020933F2130934021FC01EE0FFF1FE0558F
S11309E0F64D4083518380913F219091402180387E
S11309F0910508F463C010923F211092402181E0D8
S1130A0080933E2180E098E00C94B01A0895809180
S1130A103F21909140219C012F5F3F4F20933F2124
S1130A2030934021FC01EE0FFF1FE055F64D40834B
S1130A30518380913F21909140218038910508F4A1
S1130A403DC010923F211092402181E080933E21CD
S1130A5080E098E00C94B01A089540937A21509362
S1130A607B2181E08093772180917E2180937F2177
S1130A7080917F2132CF089540937821509379213A
S1130A8081E0809376210E94F30E8823B9F04FEF22
S1130A9060E080E00E94F90E80917F2180937E21A6
S1130AA081E080937F2180917F2117DF80E098E0AF
S1130AB00E94B01A80E498E00C947E1A0895CF93B3
S1130AC0DF93CDB7DEB72A97CDBFDEBF80E092E0DB
S1130AD00E94F416AE014F5F5F4F61E080E092E048
S1130AE00E94BE17E0EAF0E082818160828366EBB7
S1130AF074E080E092E00E94B5168B818C7F816067
S1130B008B83AE014F5F5F4F61E080E092E00E9413
S1130B10961780E092E00E94DD1678942A96CDBF65
S1130B20DEBFDF91CF910895462F50E014161506CD
S1130B307CF4E82FF92F20E030E080E090E0719120
S1130B40870F911D2F5F3F4F24173507C4F302C051
S1130B5080E090E070E00E940A20862F0895AF9212
S1130B60BF92CF92DF92EF92FF920F931F93CF9396
S1130B70DF938091552190915621A0915721B091F6
S1130B8058218093492190934A21A0934B21B093FB
S1130B904C218091512190915221A0915321B091E7
S1130BA054218093452190934621A0934721B093EB
S1130BB0482180914D2190914E21A0914F21B091D7
S1130BC050218093412190934221A0934321B093DB
S1130BD044211092552110925621109257211092BF
S1130BE058211092512110925221109253211092A7
S1130BF0542110924D2110924E2110924F211092A7
S1130C00502100910F2010911020101611069CF510
S1130C10A0905521B0905621C0905721D0905821D2
S1130C200F2EFDEEEF2EF5E2FF2EF02DC0E0D0E00A
S1130C30F701619171917F0180E090E00E94F11EC3
S1130C402A2D3B2D4C2D5D2D0E94F51D2196C0179C
S1130C50D1072CF4A62EB72EC82ED92EE9CFC62E36
S1130C60D72EE82EF92EC0925521D0925621E0922B
S1130C705721F0925821C0910D20D0910E20C00F21
S1130C80D11F0C171D079CF5A0905121B090522143
S1130C90C0905321D0905421C801880F991F9C0102
S1130CA023513A4D7901F701619171917F0180E0FF
S1130CB090E00E94F11E2A2D3B2D4C2D5D2D0E94AB
S1130CC0F51D0F5F1F4F0C171D072CF4A62EB72E12
S1130CD0C82ED92EE8CF062F172F282F392F00938F
S1130CE05121109352212093532130935421E090A9
S1130CF00B20F0900C20EC0EFD1ECE15DF0594F5B4
S1130D00A0904D21B0904E21C0904F21D090502101
S1130D108E01000F111F03511A4DF8016191719159
S1130D208F0180E090E00E94F11E9B01AC016A2DCE
S1130D307B2D8C2D9D2D0E94F51D2196CE15DF0552
S1130D402CF4A62EB72EC82ED92EE7CF062F172F98
S1130D50282F392F00934D2110934E2120934F219A
S1130D60309350210091552110915621D091572153
S1130D70C0915821C0900720D0900820E09009200D
S1130D80F0900A20A7019601602F712F8D2F9C2FC0
S1130D900E94A31F1816ECF020915121309152218A
S1130DA04091532150915421C701B6010E94591E0C
S1130DB088237CF020914D2130914E2140914F2188
S1130DC050915021C701B6010E94591E88230CF08E
S1130DD045C0C0905121D0905221E0905321F09011
S1130DE054212C2D3D2D4E2D5F2D602F712F8D2FD5
S1130DF09C2F0E94A31F181624F00C2D1D2DDE2DF0
S1130E00CF2DC0904D21D0904E21E0904F21F090F5
S1130E1050212C2D3D2D4E2D5F2D602F712F8D2FA8
S1130E209C2F0E94A31F181624F00C2D1D2DDE2DBF
S1130E30CF2D802F912FAD2FBC2F8093AC29909371
S1130E40AD29A093AE29B093AF2980930720909346
S1130E500820A0930920B0930A2014C020910320F5
S1130E60309104204091052050910620C701B6011D
S1130E700E94A71F60930720709308208093092085
S1130E8090930A202091592130915A2140915B215D
S1130E9050915C2160910720709108208091092075
S1130EA090910A200E94F41D9B01AC0160E070E067
S1130EB08FE793E40E945D1E6B017C012091552114
S1130EC03091562140915721509158210E94A71FDB
S1130ED00E94C51ED62F6093D725209151213091B1
S1130EE052214091532150915421C701B6010E94CF
S1130EF0A71F0E94C51EC62F6093AA2820914D21CA
S1130F0030914E2140914F2150915021C701B6019B
S1130F100E94A71F0E94C51E6093AB298091612186
S1130F2090916221FC01EA54FF4DD083E0915F214E
S1130F30F0916021DF01A05EBF4DCC9320915D2133
S1130F4030915E21D901AF5EBF4D6C9301966EE185
S1130F5070E00E941E208093612190936221CF0152
S1130F60019666E970E00E941E2080935F219093B1
S1130F706021C90101966FE070E00E941E208093F9
S1130F805D2190935E216FE081E190E2CDDDD82F69
S1130F908093AB2966E980E290E2C6DD182F809346
S1130FA0AA286EE186EB90E2BFDD60910220C4E6E0
S1130FB0C89FC001112470E00E941E20062F609378
S1130FC0D72520910120C19FC0011124622F70E018
S1130FD00E941E206093AA2820910020CD9FC0016A
S1130FE01124622F70E00E941E20862F6093AB298B
S1130FF02091DC209091DD20921750F02091DC208C
S11310009091DE20921720F0402F80E0F2D624C089
S11310102091DD209091DC20921750F02091DD206A
S11310209091DE20921720F0402F60E0E2D614C0A9
S11310302091DE209091DC20921750F02091DE2048
S11310409091DD20921720F040E0602FD2D604C0AA
S1131050402F682F80E0CDD6DF91CF911F910F9163
S1131060FF90EF90DF90CF90BF90AF9008952F92B4
S11310703F924F925F926F927F928F929F92AF9224
S1131080BF92CF92DF92EF92FF920F931F93CF9371
S1131090DF932F923F924F925F92FF920F931F9391
S11310A0CF93DF93C0EBD9E2EEE4F2E0FF2440E813
S11310B06591759108811981970320010E034F1CD6
S11310C010019E035F08300C411C5F1CF8035F088D
S11310D0300C411C5F1C499259924A9549F7DF91A3
S11310E0CF911F910F91FF905F904F903F902F9061
S11310F011242F923F926F927F92CF93DF93EEE46D
S1131100F6E048E3A591BB27AA0FBB1FA055B64D37
S11311102D903C90C591DD27CC0FDD1FC055D64DD9
S1131120688079807C926E92288239824A9551F740
S1131130DF91CF917F906F903F902F902F923F92AD
S11311404F925F926F927F928F929F92AF92BF92D3
S1131150CF92DF92EF92FF920F931F93CF93DF937F
S1131160FF2400E1E02EC0EBD9E2688079804A8058
S11311705B8075946794430155944794640C751C83
S113118084189508AC80BD804E805F80B594A79488
S1131190650155944794A40CB51CC418D5086885FA
S11311A079854A845B84759567958B01559447943A
S11311B0640D751D041915098C859D854E845F8405
S11311C0959587959C0155944794840D951D2419F4
S11311D03509759467942301B594A7946A0C7B1C14
S11311E04A185B08959487945401D594C7948C0C41
S11311F09D1CAC18BD08759567956B0195958795F1
S1131200680F791FC81AD90A7594679413017595E4
S11312106795660E771E261A370A42E85AE51503C3
S1131220C001049FB00114039F09700D811D9F1D0F
S1131230509F700D811D9F1D959487948401880E85
S1131240991E081B190B55944794D201D594C79441
S11312504C0C5D1CAC19BD093503C001249FB001C1
S113126034039F09700D811D9F1D529F700D811DB8
S11312709F1DB594A7946501A80EB91EC81AD90A72
S1131280699279928992999249925992A992B992C2
S11312902992399209931993A993B993C992D9922E
S11312A0EA9409F062CF00E2C02EDD240AE2902E17
S11312B0EEEBF6E000E1A02EBB2404E0E02EA0EB70
S11312C0B9E2ED01CA0DDB1D8E2C2D903C904880B7
S11312D0598035942794310155944794640C751CB6
S11312E024183508299239927C926E92AC0DBD1D5A
S11312F01197EA94088119813C912E914591559159
S11313006591759115022001049F100114035F0873
S1131310300C411C5F1C509F300C411C5F1C370279
S11313203001269F200C311C461C571C36035F08D5
S1131330300C411C5F1C729F300C411C5F1C0E0161
S1131340CA19DB0928803980359427943101640C4B
S1131350751C2418350868827982E0012992399233
S113136017022001069F100116035F08300C411C70
S11313705F1C709F300C411C5F1C35023001249FA0
S1131380201831084608570834035F1C30184108F8
S11313905F08529F301841085F080D01AA19BB0964
S11313A02D903C90359427943101640C751C2418BD
S11313B035087C926E92D0012D923C921297EA9459
S11313C009F098CFDE01AA19BB092D903C90488002
S11313D0598035942794310155944794640C751CB5
S11313E024183508288239827C926E92C50196951C
S11313F08795C80FD91FC03BD90540F4DE01CA0D3B
S1131400DB1DE82CEA19FB0934965FCF85FC06C086
S1131410EA2CE6945601CC0CDD1C51CFDF91CF9120
S11314201F910F91FF90EF90DF90CF90BF90AF90FE
S11314309F908F907F906F905F904F903F902F90F0
S113144011242F923F924F925F926F927F928F92CC
S1131450FF920F931F93CF93DF93A0EBB9E2CDEEEE
S1131460D5E2E0EBFAE24F01FF2440E40D911D9137
S1131470980106C0F4010D911D91329122914F0102
S113148011022001009F100198035F08300C411CD9
S11314905F1C33023001229F200C311C461C571C58
S11314A0BA035F08300C411C5F1C1127552061F002
S11314B018E0F201F03428F5330CEE1FFF1F330C53
S11314C0EE1FFF1F1A951DC0442069F014E0F42D8F
S11314D0E32DF034B0F4220CEE1FFF1F220CEE1F9C
S11314E0FF1F1A95F6CFF101F03458F4F03160F48F
S11314F0F13078F0F295E295EF70EF2BE695F1E09C
S113150008C0EF2FF2E005C0EE0FFF1FEF2FE068D9
S1131510F1E0E25BFC4F04912227112321F0000F3C
S1131520221F1A95E1F7099329934A9509F0A2CF4E
S1131530DF91CF911F910F91FF908F907F906F90CB
S11315405F904F903F902F90112409DB10923E2121
S1131550DF91CF911F910F91FF90EF90DF90CF908B
S1131560BF90AF909F908F907F906F905F904F90BF
S11315703F902F9008951F93CF93DF93162FC82F7A
S1131580D0E0CE010E941018CE010E94EC1791E029
S1131590181390E0892FDF91CF911F910895CF9375
S11315A0DF93CDB7DEB72997CDBFDEBF80E89AE1E0
S11315B0A6E0B0E089839A83AB83BC8383E290E0A6
S11315C0A0E0B0E08D839E83AF83B88780E58987F0
S11315D060E483E00E947616BE016F5F7F4F80E86F
S11315E094E00E94CA1BE0E8F4E081818860818372
S11315F078942996CDBFDEBFDF91CF91089540E066
S113160059E160E280E496E00E948D1680E28093C6
S1131610B000E0E4F6E0828781E08187E0EAF0E070
S11316208281816082837894089541E050E060E291
S113163080E096E00E948D1641E050E060E480E096
S113164096E00E948D1641E050E060E880E096E06C
S11316500E948D1641E050E060E480E696E00E942E
S11316608D1641E050E061E080EE97E00E948D1617
S113167041E050E061E080E696E00E948D1641E092
S113168050E062E080E696E00C948D1608951F9277
S11316900F920FB60F9211240F931F932F933F9322
S11316A04F935F936F937F938F939F93AF93BF9366
S11316B0EF93FF93CF93DF93CDB7DEB76197CDBFA1
S11316C0DEBF80E2E0E4F6E0848780916E21882327
S11316D021F0813009F47CC098C0FE013C9686E07C
S11316E0DF011D928A95E9F7BE016F5F7F4F8BE0A2
S11316F0DB011D928A95E9F785E28983EF83F887F8
S113170086E090E089879A8741E080E894E00E942F
S1131710DF1B8D8582FB002700F910E00093B12ABE
S1131720012B09F472C0887790E09595879595957B
S11317308795959587958093B02A8E858F7780932A
S1131740B72A90E0FC017097E335F105D8F5EA5A21
S1131750FF4F0C94532080EA8093632181E035C0CD
S113176081EA8093632182E030C082EA809363211E
S113177083E02BC083EA8093632184E026C083EA5C
S11317808093632184E021C084EA8093632185E00F
S11317901CC084EA8093632185E017C085EA8093A6
S11317A0632186E012C085EA8093632186E00DC040
S11317B086EA8093632187E008C086EA80936321E8
S11317C087E003C01092632180E080936D211DC0E7
S11317D0BE016F5F7F4F8BE0FB0111928A95E9F7A1
S11317E085E2898384E691E28F83988789E090E09B
S11317F089879A8741E080E894E00E94DF1B109279
S11318006E21809167218093D4206196CDBFDEBF85
S1131810DF91CF91FF91EF91BF91AF919F918F9104
S11318207F916F915F914F913F912F911F910F91F4
S11318300F900FBE0F901F901895E0E0F8E084859C
S11318408160848781E08093B92A8FB7F894E0E0BF
S1131850F2E09081946090838FBF089581E080933B
S1131860B82AE0E4F8E08485816084878CC3089515
S1131870CF93DF9380E098E00E947E1AC0E0D8E026
S11318808E818C7F8E838E8181608E838981887F17
S113189089836DE17CE080E098E00E94E21A80E5B3
S11318A090E08EA39FA38881807F84608883E0EA90
S11318B0F0E08281816082837894DF91CF910895F2
S11318C0CF93DF93C0E4D8E08E818C7F8E838E81AA
S11318D082608E838981887F89836EE27CE080E4E4
S11318E098E00E94E21A84E294EF8EA39FA3888179
S11318F0807F86608883E0EAF0E082818260828370
S11319007894DF91CF91089543E050E068E080E659
S113191096E00E948D1640E050E064E080E696E098
S11319200E948D1665ED70E280EC99E00E944F1DD7
S1131930E0ECF9E0828180638283E0EAF0E0828176
S11319408460828378940895682F80EC98E00C94E6
S11319503B1C0895CF93DF93CCEDD0E28881809334
S1131960D32AADEDB0E28C918093D42AEEEDF0E26F
S113197080818093D52A88818093DC2A8C918093FE
S1131980DD2A80818093DE2ACFEDD0E288818093A6
S1131990D62AA0EEB0E28C918093D72AE1EEF0E251
S11319A080818093D82A88818093DF2A8C918093C8
S11319B0E02A80818093E12AC2EED0E2888180937C
S11319C0D92AA3EEB0E28C918093DA2AE4EEF0E215
S11319D080818093DB2A88818093E22A8C91809392
S11319E0E32A80818093E42AC0E0D0E0FE01E4523F
S11319F0FF4D60812196CE010E941018C930D10597
S1131A00A9F7F1D1811104C066E083ED9AE203D70E
S1131A10DF91CF9108958091712108958091702173
S1131A2010927021089581E08093702108951F928F
S1131A300F920FB60F9211242F933F934F935F93FE
S1131A406F937F938F939F93AF93BF93EF93FF9382
S1131A5080EC98E00E94431C9091742191110EC077
S1131A608F3049F481E08093742196E09093F020C4
S1131A708093732138C01092742135C0292F30E02F
S1131A806091F020462F50E04F5F5F4F24173507D9
S1131A90F1F410927421803FA9F44091BB2A4423AD
S1131AA061F08BEB9AE2FC0120E03191230F3E2F91
S1131AB0381B3417D0F3211105C0109273218FEF16
S1131AC043DF11C0109273218CE03EDF0CC0F9019A
S1131AD0E654F54D80839F5F909374218091BB2AD7
S1131AE068138093F020FF91EF91BF91AF919F9184
S1131AF08F917F916F915F914F913F912F910F90B3
S1131B000FBE0F901F9018951F920F920FB60F9251
S1131B1011242F933F934F935F936F937F938F93EE
S1131B209F93AF93BF93CF93DF93EF93FF93C0E063
S1131B30D0E080EC99E00E94431CFE01EB51FF4D84
S1131B4080832196CB30D105A1F78091E52090E0E8
S1131B50FC013197E037F10508F0F5C0E755FF4F78
S1131B600C9453206FEF83E467D4C7EED0E28881EE
S1131B708093D32AA8EEB0E28C918093D42AE9EE24
S1131B80F0E280818093D52A88818093DC2A8C912D
S1131B908093DD2A80818093DE2ACAEED0E2888198
S1131BA08093D62AABEEB0E28C918093D72AECEEE8
S1131BB0F0E280818093D82A88818093DF2A8C91F7
S1131BC08093E02A80818093E12ACDEED0E288815F
S1131BD08093D92AAEEEB0E28C918093DA2AEFEEAC
S1131BE0F0E280818093DB2A88818093E22A8C91C1
S1131BF08093E32A80818093E42AC0E0D0E0FE0150
S1131C00E951FF4D8081FE01E452FF4D80836081E4
S1131C102196CE010E941018C930D10581F7E3D076
S1131C20811191C066E083ED9AE2F5D58CC06FEF27
S1131C3080E502D48091E720882319F0813039F0BF
S1131C400CC01092712181E0809370217CC081E0EE
S1131C50809371218093702176C081E080937121FB
S1131C608093702170C080917121882329F0109293
S1131C70712181E08093702181E080936F216FEF67
S1131C80DBD361C08091E72090E08730910508F0B4
S1131C905AC0FC01E75EFE4F0C9453208091E8206B
S1131CA090E080938021909381214DC08091E82021
S1131CB090E08093FC209093FD2045C08091E82023
S1131CC090E08093FA209093FB203DC08091E8201F
S1131CD090E08093F8209093F92035C08091E8201B
S1131CE090E08093F6209093F7202DC08091E82017
S1131CF090E08093F4209093F52025C08091E82013
S1131D0090E08093F2209093F3201DC08091E7200F
S1131D108093F12018C08091E7208093022013C0A3
S1131D208091E720809301200EC08091E72080936A
S1131D30002009C092D307C0A9D305C0FDD303C0B6
S1131D40D4D301C0BDD381E080937221FF91EF9180
S1131D50DF91CF91BF91AF919F918F917F916F91BF
S1131D605F914F913F912F910F900FBE0F901F9055
S1131D701895EF92FF920F931F93CF93DF938C01EB
S1131D806115710591F07B0120E030E0C0E0D0E006
S1131D90F801E20FF31F608180EC99E00E943B1C84
S1131DA021969E01CE15DF0599F7DF91CF911F9102
S1131DB00F91FF90EF900895682F677021E030E055
S1131DC0A90102C0440F551F6A95E2F7BA0186952E
S1131DD08695869550E2859FC001112442E050E02B
S1131DE09A5F9BC70895E0EEF7E080858695817041
S1131DF0089520E030E0F901EE0FFF1FE20FF31F1A
S1131E00ED52F54D8083618342832F5F3F4F26302F
S1131E10310589F766E083ED9AE2FDC408958FEFFA
S1131E208093D32A1092D42A1092D52A1092D62ABB
S1131E308093D72A1092D82A1092D92A1092DA2A9B
S1131E408093DB2A8093DC2A1092DD2A1092DE2A0A
S1131E501092DF2A8093E02A1092E12A1092E22A5B
S1131E601092E32A8093E42A66E083ED9AE2D3C4D5
S1131E70089520E0822F90E0FC01EE0FFF1FE80F91
S1131E80F91FED52F54D1082118212822F5F263018
S1131E9089F766E083ED9AE2BEC40895AF92BF92DB
S1131EA0DF92EF92FF920F931F93CF93DF930F2E46
S1131EB0FCEDEF2EF0E2FF2EF02DD7018C918093F4
S1131EC0D32A0DED10E2F80180818093D42A6EEDBF
S1131ED070E2DB018C918093D52A4FED50E2FA0138
S1131EE080818093D62A20EE30E2D9018C918093B0
S1131EF0D72A81EE90E2DC01EC91E093D82AC2EE7D
S1131F00D0E2E881E093D92AA3EEB0E2EC91E09329
S1131F10DA2A0F2EF4EEAF2EF0E2BF2EF02DF501EB
S1131F20D080D092DB2AF701F080F092DC2AF8010D
S1131F3010811093DD2AFB0160816093DE2AFA018F
S1131F4040814093DF2AF90120812093E02AFC019B
S1131F5080818093E12A88818093E22A8C91809306
S1131F60E32AD5018C918093E42A66E083ED9AE21A
S1131F7052D4DF91CF911F910F91FF90EF90DF909A
S1131F80BF90AF9008951092B82A8091752188234C
S1131F9059F180917821909179219C012056354006
S1131FA02F35310548F48091FA209091FB208093DD
S1131FB07C2190937D2116C0815B94408F3A9105DA
S1131FC048F48091F6209091F72080937C2190939F
S1131FD07D2108C0809180219091812180937C2172
S1131FE090937D2110927521FEDE811114C08091A1
S1131FF07F2180937E2186E080937F2180917F21C1
S11320000E946D0480E098E00E947E1A80E498E0CB
S11320100E94B01A43DF80917C2190917D21209110
S1132020FC203091FD208217930708F048C021DF7F
S11320304091F12020917C2130917D216091FC2000
S11320407091FD20429FC001439F900D11240E9476
S11320500A206093D32A1092D42A1092D52A10927F
S1132060D62A1092D72A1092D82A1092D92A1092DE
S1132070DA2A1092DB2A4091F1206091FC207091C1
S1132080FD20429FC001439F900D11240E940A200D
S11320906093DC2A1092DD2A1092DE2A1092DF2A45
S11320A01092E02A1092E12A1092E22A1092E32A76
S11320B01092E42A66E083ED9AE2ADD3A8C12091A0
S11320C0F8203091F9208217930708F059C0D1DE27
S11320D08091F1208093D32A1092D42A1092D52A89
S11320E01092D62A1092D72A1092D82A20917C21B5
S11320F030917D218091FC209091FD20E091F12090
S11321006091F8207091F920A901481B590BE49FB4
S1132110C001E59F900D11240E940A206093D92AE2
S11321201092DA2A1092DB2A8091F1208093DC2A23
S11321301092DD2A1092DE2A1092DF2A1092E02AF1
S11321401092E12A8091FC209091FD204091F12091
S11321506091F8207091F920281B390B429FC0012F
S1132160439F900D11240E940A206093E22A10924A
S1132170E32A1092E42A66E083ED9AE24CD347C145
S11321802091F4203091F5208217930708F05DC068
S113219070DE8091F1208093D32A1092D42A109279
S11321A0D52A20917C2130917D218091F820909135
S11321B0F920E091F1206091F4207091F520A901BB
S11321C0481B590BE49FC001E59F900D11240E9408
S11321D00A206093D62A1092D72A1092D82A809186
S11321E0F1208093D92A1092DA2A1092DB2A809166
S11321F0F1208093DC2A1092DD2A1092DE2A80914D
S1132200F8209091F9204091F1206091F420709190
S1132210F520281B390B429FC001439F900D1124C8
S11322200E940A206093DF2A1092E02A1092E12A89
S11322308091F1208093E22A1092E32A1092E42AFA
S113224066E083ED9AE2E7D2E2C02091F220309179
S1132250F3208217930708F0A5C00BDE1092D32A4F
S113226020917C2130917D218091F6209091F7205E
S1132270E091F1206091F2207091F320A901481BB4
S1132280590BE49FC001E59F900D11240E940A2080
S11322906093D42A1092D52A1092D62A8091F620DF
S11322A09091F720E091F1206091F2207091F32059
S11322B0A901481B590BE49FC001E59F900D11240F
S11322C00E940A206093D72A1092D82A1092D92A01
S11322D08091F6209091F720E091F1206091F22016
S11322E07091F320A901481B590BE49FC001E59F9D
S11322F0900D11240E940A206093DA2A1092DB2A9E
S11323001092DC2A8091F6209091F720E091F12040
S11323106091F2207091F320A901481B590BE49FAE
S1132320C001E59F900D11240E940A206093DD2ACC
S11323301092DE2A1092DF2A8091F6209091F720E5
S1132340E091F1206091F2207091F320A901481BE3
S1132350590BE49FC001E59F900D11240E940A20AF
S11323606093E02A1092E12A1092E22A8091F620EA
S11323709091F7204091F1206091F2207091F32028
S1132380281B390B429FC001439F900D11240E94CA
S11323900A206093E32A1092E42A66E083ED9AE22D
S11323A03AD235C066DD1092D32A8091F120809311
S11323B0D42A1092D52A1092D62A8091F1208093A3
S11323C0D72A1092D82A1092D92A8091F12080938A
S11323D0DA2A1092DB2A1092DC2A8091F120809371
S11323E0DD2A1092DE2A1092DF2A8091F120809358
S11323F0E02A1092E12A1092E22A8091F12080933F
S1132400E32A1092E42A66E083ED9AE204D28091F2
S11324107C2190917D21019680937C2190937D2154
S113242008951F920F920FB60F92112480E2E0E6F6
S1132430F6E084871EDDFFCFCF93DF9300D0CDB7C6
S1132440DEB789836A8362E070E0CE01019691DC95
S11324500F900F90DF91CF910895CF93DF9300D029
S11324601F92CDB7DEB790917A2180917B219B8317
S11324708A838DE4898363E070E0CE01019679DC80
S11324802396CDBFDEBFDF91CF910895CF93DF9325
S113249000D0CDB7DEB780917821909179216AE0A0
S11324A070E00E941E206A8382E4898362E070E007
S11324B0CE0101965EDC0F900F90DF91CF910895CD
S11324C0CF93DF9300D0CDB7DEB719821A828BDCAD
S11324D08A8387E4898362E070E0CE01019649DC57
S11324E00F900F90DF91CF910895CF93DF93CDB7E5
S11324F0DEB72A97CDBFDEBFFE0131968AE0DF0149
S11325001D928A95E9F783E68983319681E090E00C
S1132510DC01A452BF4D2C91219301968930910581
S1132520B9F769E070E0CE01019623DC2A96CDBFAD
S1132530DEBFDF91CF910895CF93DF9300D0CDB765
S1132540DEB719821A8267DA8A8380E7898363E0B7
S113255070E0CE0101960DDC0F900F90DF91CF91CA
S1132560089581E090E038D58093DC2082E090E00B
S113257033D58093DD2083E090E02ED58093DE2058
S113258084E090E029D58093DF2085E090E024D595
S11325908093E02086E090E01FD58093E12087E0DF
S11325A090E01AD58093E22088E090E015D58093DE
S11325B0E32089E090E010D58093E420CBC908950E
S11325C00895682F677021E030E0A90102C0440F2C
S11325D0551F6A95E2F7BA0186958695869550E26D
S11325E0859FC001112441E050E09A5F96C308958D
S11325F0DC0111969C91119788E0E0E4F6E020E478
S113260099230CF028C0258300000000000000007E
S113261000000000000000000000000000000000B6
S113262000000000000000000000000000000000A6
S113263000000000000000002683000000000000ED
S11326400000000000000000000000000000000086
S11326500000000026C025830000000000000000E8
S113266000000000000000000000000000002683BD
S11326700000000000000000000000000000000056
S11326800000000000000000000000000000000046
S11326900000000000000000000000000000000036
S11326A00000990F815009F0ABCF9C9188E0E0E4E1
S11326B0F6E020E499230CF028C0258300000000F4
S11326C00000000000000000000000000000000006
S11326D000000000000000000000000000000000F6
S11326E0000000000000000000000000268300003D
S11326F000000000000000000000000000000000D6
S1132700000000000000000026C025830000000037
S113271000000000000000000000000000000000B5
S113272000002683000000000000000000000000FC
S11327300000000000000000000000000000000095
S11327400000000000000000000000000000000085
S1132750000000000000990F815009F0ABCF1296E1
S11327609C9188E0E0E4F6E020E499230CF028C092
S113277025830000000000000000000000000000AD
S11327800000000000000000000000000000000045
S11327900000000000000000000000000000000035
S11327A0000026830000000000000000000000007C
S11327B0000000000000000000000000000026C02F
S11327C0258300000000000000000000000000005D
S11327D0000000000000000026830000000000004C
S11327E000000000000000000000000000000000E5
S11327F000000000000000000000000000000000D5
S1132800000000000000000000000000990F81504B
S113281009F0ABCF08950F931F93CF93DF93062F47
S1132820662349F0C82FD92F10E0CE01E1DE1F5FE7
S113283023961013FACF80E4E0E4F6E0868389EF70
S113284090E00197F1F700C00000DF91CF911F9154
S11328500F910895FC0180818093D32A8181809314
S1132860D42A82818093D52A80818093DC2A818135
S11328708093DD2A82818093DE2A83818093D62A05
S113288084818093D72A85818093D82A83818093F9
S1132890DF2A84818093E02A85818093E12A8681DE
S11328A08093D92A87818093DA2A80858093DB2AD2
S11328B086818093E22A87818093E32A80858093AE
S11328C0E42A66E083ED9AE2A6CF0895CF93DF93DE
S11328D0CDB7DEB72A97CDBFDEBFE1D115D886E1EB
S11328E070DEC7DA89E768DA80E090E075D389831F
S11328F081E090E071D38A8382E090E06DD38B8392
S113290083E090E069D38C8384E090E065D38D8389
S113291085E090E061D38E8386E090E05DD38F8381
S113292087E090E059D3888788E090E055D3898781
S113293089E090E051D38A870E94150B0E94CF0A48
S11329400E94FF0A6CDA0DDE11E010937F21809162
S11329507F210E946D041093752180E098E000D6D9
S113296080E498E0CBD580917F210E94ED030E9402
S11329705F050E94600C0E94380C35DA811111C089
S113298080917F2180937E2186E080937F218091B6
S11329907F210E946D0480E498E0E2D580E098E015
S11329A0ADD50F2EF0E6EF2EF6E0FF2EF02D689455
S11329B0992491F8BB24B3940F2EF0EECF2EF7E0B8
S11329C0DF2EF02D6894AA24A6F800E016E068949F
S11329D0772477F86894882485F86894552452F805
S11329E00F2EF6E06F2EF02D80916321882309F4D9
S11329F086C08091632190E0FC01E05AF109E73040
S1132A00F10508F07AC0E05EFE4F0C945320F80103
S1132A10858284E391E21EDFFFE72AE186E0F1503C
S1132A2020408040E1F700C00000F801868265C0C4
S1132A30F801A5828BE291E20DDFFFE72AE186E04F
S1132A40F15020408040E1F700C00000F801A68268
S1132A5054C0F801758282E291E2FCDEFFE72AE1CC
S1132A6086E0F15020408040E1F700C00000F8010A
S1132A70768243C0F701A58289E191E2EBDEFFE7AC
S1132A802AE186E0F15020408040E1F700C00000D8
S1132A90F701A68232C0F601B58280E191E2DADE66
S1132AA0FFE72AE186E0F15020408040E1F700C0D2
S1132AB00000F601B68221C0F701B58287E091E2F9
S1132AC0C9DEFFE72AE186E0F15020408040E1F7CB
S1132AD000C00000F701B68210C0F70195828EEFA6
S1132AE090E2B8DEFFE72AE186E0F1502040804022
S1132AF0E1F700C00000F70196821092632173D9B8
S1132B008823F1F080917F21813009F46DCF4FEF5C
S1132B1060E080E06ED910926F2180917F218093D4
S1132B207E21B0927F2180917F210E946D04B0921A
S1132B30752180E098E014D580E498E0DFD454CF88
S1132B4080917F21813089F480917F2180937E213F
S1132B5060927F2180917F210E946D0480E498E03F
S1132B60FFD480E098E0CAD499D90E940B0D882341
S1132B7051F080917F21823031F080917F21843027
S1132B8011F00E94130D80916F21882379F08091B8
S1132B907F2180937E2110927F2180E098E0E0D411
S1132BA00FDD40E060E080E024D91ECF0E940E0DCE
S1132BB0882359F10E940B0D8823A1F0B092822141
S1132BC080917F2180937E2190927F2180917F212B
S1132BD00E946D0480E098E091D46B2D80E00E9407
S1132BE0BB0A02CF1092822180917F2180937E21A3
S1132BF060927F2180917F210E946D043AD960E028
S1132C0080E00E94BB0A4AD9EFCE809182218130B4
S1132C1009F0EACE80913E21882309F4E5CE809123
S1132C207F21823081F40E94370880917F21809334
S1132C307E2150927F2180917F210E946D0480E04B
S1132C4098E05CD429C080917F21843029F50E94CA
S1132C503708C9D8882399F080917F2180937E21F9
S1132C60B0927F2180917F210E946D04B0927521E2
S1132C7080E098E075D480E498E040D40DC0809161
S1132C807F2180937E2190927F2180917F210E94D9
S1132C906D0480E098E032D410923E21A5CE8FEFEF
S1132CA0809370008093710080937200809373000E
S1132CB08093740080937500809376008FB7F894A6
S1132CC0E0E5F0E09081926090838FBF818181FF85
S1132CD0FDCF61E080E490E079D18FB7F894E0E52E
S1132CE0F0E090819E7F90838FBF08959FB7F89402
S1132CF0E82FF0E0E059FF4F6095808168236083FE
S1132D009FBF08959FB7F894E82FF0E0E059FF4F74
S1132D108081682B60839FBF0895CF93DF93FC016C
S1132D20709620E030E0C62FD0E0DE01022E02C013
S1132D30B595A7950A94E2F7A0FD50832F5F3F4F06
S1132D4031962830310589F740FF0AC041FF03C09E
S1132D50FC01658302C0FC016683FC01618302C03F
S1132D60FC016283DF91CF9108952FB7F894811508
S1132D70924021F46093EB2A7093EC2A2FBF0895BC
S1132D808115924059F48091832191E0980F90939A
S1132D908321811103C062E081E0A8CF08958115E9
S1132DA0924051F480918321815080938321811139
S1132DB003C062E081E0A6CF08951F93CF93DF9311
S1132DC0EC011FB7F894DCDF8881816088831FBF22
S1132DD08FB7F894E6EEFAE290819F5F90838FBFFD
S1132DE0DF91CF911F910895CF93CFB7F894FC0151
S1132DF020812E7F2083D3DFCFBF8FB7F894E6EEF8
S1132E00FAE29081915090838FBFCF9108951F92E1
S1132E100F920FB60F9211242F933F934F935F930A
S1132E206F937F938F939F93AF93BF93EF93FF938E
S1132E30E0E0F2E044A155A1E091EB2AF091EC2A04
S1132E4061E080E092E00995FF91EF91BF91AF912D
S1132E509F918F917F916F915F914F913F912F91AE
S1132E600F900FBE0F901F901895DF92EF92FF9274
S1132E700F931F93CF93DF93EC018B01C11582E075
S1132E80D80751F561E270E082E0F0D0E82EF12C31
S1132E9060E270E082E0EAD0FE2CEE24E82ADFB69D
S1132EA0F894CE016DDF2881217082E08883EC865E
S1132EB0FD86F80184819581888F998F81818A8329
S1132EC083818C8382818B838081898386818887B7
S1132ED02883CE0164DFDFBEDF91CF911F910F9174
S1132EE0FF90EF90DF900895FF920F931F93CF937D
S1132EF0DF93EC018B01FFB6F89442DF888D998D46
S1132F00F801848395838A8181838C8183838B8177
S1132F1082838981808388858683CE0140DFFFBEDA
S1132F20DF91CF911F910F91FF900895FF920F931E
S1132F301F93CF93DF93EC018A01FFB6F89420DF4F
S1132F40F801808188A382818AA3818189A38381F6
S1132F508EA384818FA3858188A7868189A7878191
S1132F608AA780858BA781858CA7CE0118DFFFBE39
S1132F70DF91CF911F910F91FF900895FF920F93CE
S1132F801F93CF93DF93EC018A01FFB6F894F8DE28
S1132F9088A1F80180838AA1828389A181838EA17B
S1132FA083838FA1848388A5858389A586838AA545
S1132FB087838BA580878CA58187CE01F0DEFFBE39
S1132FC0DF91CF911F910F91FF9008951BBEFC01DB
S1132FD028ED24BF60830895E0ECF1E027852223E7
S1132FE0ECF3FC01F05F80810895E0ECF1E087856B
S1132FF08823ECF3E0ECF1E0878581FF06C086E3EB
S1133000828761E08BEC91E0E1CF0895E0ECF1E0A0
S113301097859923ECF3E82FF0E0F05F608308953F
S1133020FF920F931F93CF93DF93182FF92EC62F80
S1133030E0ECF1E00285D9DFE0ECF1E02785222322
S1133040ECF36C2F812FE2DFC0ECD1E01A82F9821D
S1133050188385E38A8761E08BEC91E0B7DF0A8708
S1133060DF91CF911F910F91FF9008954091CA0174
S1133070E62FF72F8093CA0184914093CA010895E3
S11330801F920F920FB60F9211242F933F934F93D9
S11330905F936F937F938F939F93AF93BF93EF93BC
S11330A0FF93E0919E21F0919F21309709F00995BB
S11330B0FF91EF91BF91AF919F918F917F916F910C
S11330C05F914F913F912F910F900FBE0F901F90E2
S11330D018951F920F920FB60F9211242F933F93BE
S11330E04F935F936F937F938F939F93AF93BF930C
S11330F0EF93FF93E0919C21F0919D21309709F08B
S11331000995FF91EF91BF91AF919F918F917F911D
S11331106F915F914F913F912F910F900FBE0F9040
S11331201F9018951F920F920FB60F9211242F9390
S11331303F934F935F936F937F938F939F93AF933B
S1133140BF93EF93FF93E0919A21F0919B213097E5
S113315009F00995FF91EF91BF91AF919F918F91E4
S11331607F916F915F914F913F912F910F900FBE7F
S11331700F901F9018951F920F920FB60F92112463
S11331802F933F934F935F936F937F938F939F936B
S1133190AF93BF93EF93FF93E0919821F09199211E
S11331A0309709F00995FF91EF91BF91AF919F91ED
S11331B08F917F916F915F914F913F912F910F90DC
S11331C00FBE0F901F9018951F920F920FB60F927B
S11331D011242F933F934F935F936F937F938F9318
S11331E09F93AF93BF93EF93FF93E0919621F09158
S11331F09721309709F00995FF91EF91BF91AF9115
S11332009F918F917F916F915F914F913F912F91FA
S11332100F900FBE0F901F9018951F920F920FB62C
S11332200F9211242F933F934F935F936F937F9348
S11332308F939F93AF93BF93EF93FF93E091942168
S1133240F0919521309709F00995FF91EF91BF9185
S1133250AF919F918F917F916F915F914F913F912A
S11332602F910F900FBE0F901F9018951F920F92E1
S11332700FB60F9211242F933F934F935F936F9345
S11332807F938F939F93AF93BF93EF93FF93E091BB
S11332909221F0919321309709F00995FF91EF91D4
S11332A0BF91AF919F918F917F916F915F914F915A
S11332B03F912F910F900FBE0F901F9018951F9262
S11332C00F920FB60F9211242F933F934F935F9356
S11332D06F937F938F939F93AF93BF93EF93FF93DA
S11332E0E0919021F0919121309709F00995FF9197
S11332F0EF91BF91AF919F918F917F916F915F916A
S11333004F913F912F910F900FBE0F901F901895E2
S11333101F920F920FB60F9211242F933F934F9346
S11333205F936F937F938F939F93AF93BF93EF9329
S1133330FF93E0918E21F0918F21309709F0099548
S1133340FF91EF91BF91AF919F918F917F916F9179
S11333505F914F913F912F910F900FBE0F901F904F
S113336018951F920F920FB60F9211242F933F932B
S11333704F935F936F937F938F939F93AF93BF9379
S1133380EF93FF93E0918C21F0918D21309709F018
S11333900995FF91EF91BF91AF919F918F917F918B
S11333A06F915F914F913F912F910F900FBE0F90AE
S11333B01F9018951F920F920FB60F9211242F93FE
S11333C03F934F935F936F937F938F939F93AF93A9
S11333D0BF93EF93FF93E0918A21F0918B21309773
S11333E009F00995FF91EF91BF91AF919F918F9152
S11333F07F916F915F914F913F912F910F900FBEED
S11334000F901F9018951F920F920FB60F921124D0
S11334102F933F934F935F936F937F938F939F93D8
S1133420AF93BF93EF93FF93E0918821F0918921AB
S1133430309709F00995FF91EF91BF91AF919F915A
S11334408F917F916F915F914F913F912F910F9049
S11334500FBE0F901F9018951F920F920FB60F92E8
S113346011242F933F934F935F936F937F938F9385
S11334709F93AF93BF93EF93FF93E0918621F091D5
S11334808721309709F00995FF91EF91BF91AF9192
S11334909F918F917F916F915F914F913F912F9168
S11334A00F900FBE0F901F9018951F920F920FB69A
S11334B00F9211242F933F934F935F936F937F93B6
S11334C08F939F93AF93BF93EF93FF93E0918421E6
S11334D0F0918521309709F00995FF91EF91BF9103
S11334E0AF919F918F917F916F915F914F913F9198
S11334F02F910F900FBE0F901F901895CF93CFB7B9
S1133500F894282F392F211588E0380739F461E021
S113351083E0ECDB64E083E0E9DB17C0203488E07F
S1133520380739F462E083E0E1DB64E083E0DEDB6A
S11335300CC02034394039F462E084E0D7DB64E025
S113354084E0D4DB02C0CFBF09C08FB7F894E6EEA5
S1133550FAE290819F5F90838FBFCFBFCF91089590
S1133560CF93CFB7F8942FB7F894E6EEFAE2308110
S1133570315030832FBF282F392F211588E0380789
S113358039F461E083E0BEDB64E083E0BBDB17C0B9
S1133590203488E0380739F462E083E0B3DB64E088
S11335A083E0B0DB0CC02034394039F461E084E0BE
S11335B0A9DB64E084E0A6DB02C0CFBF01C0CFBFBB
S11335C0CF910895811528E0920729F460939E21F4
S11335D070939F210895803428E0920729F4609322
S11335E092217093932108958034994021F460933B
S11335F08A2170938B2108951F920F920FB60F9218
S113360011242F933F934F935F936F937F938F93E3
S11336109F93AF93BF93CF93DF93EF93FF93E09187
S1133620A021F091A121848183FF08C08860848354
S113363083E0838386EF8093AA2199C0982F9471A5
S113364031F083E083838FEF8093AA2190C086FFBB
S113365045C0A091A221B091A3218091A421909171
S1133660A52114962D913C911597821793076CF41C
S11336709C012F5F3F4F2093A4213093A521A80FD5
S1133680B91F11968C91878372C08091A621909165
S1133690A72118962D913C91199782179307C8F486
S11336A02091A821222321F08681816086835FC036
S11336B016962D913C911797AC014F5F5F4F409345
S11336C0A6215093A721D901A80FB91F8C918783F4
S11336D04EC083E083831092AA2149C088230CF052
S11336E043C0A091A221B091A3218091A6219091E1
S11336F0A72118962D913C9119978217930770F57D
S113370016966D917C9117979C012F5F3F4F2093E4
S1133710A6213093A7214781860F971FEC01488388
S1133720EB01888190E0019618964D915C91199770
S11337304817590721F018968D939C93199718965A
S11337408D919C9119972817390718F482E0838387
S11337500EC087E083831092AA2109C083E083838B
S113376089EF8093AA2103C08BEF8093AA21FF9154
S1133770EF91DF91CF91BF91AF919F918F917F9105
S11337806F915F914F913F912F910F900FBE0F90CA
S11337901F901895FC01DB0114968C91858388EBAE
S11337A0818381E084831092A9211092AA21E0EA06
S11337B0F0E0828182608283789480E008950097AB
S11337C009F453C06115710509F451C0FB01328538
S11337D02091A92102C031114CC02111FCCF2FB777
S11337E0F89431E03093A92130E83093AA212FBF17
S11337F08093A0219093A1216093A2217093A3218F
S11338001092A4211092A5211092A6211092A72112
S11338104093A821FB012081522F550F248135812B
S1133820232B11F4411103C0FC01568303C05160E2
S1133830FC015683EAEAF1E280818038E9F3E09101
S1133840A021F091A12184818370813049F0A0EA04
S1133850B1E2ED91FC911197848183708130C9F7B5
S11338608091AA211092A921089588EF089588EFE4
S1133870089586EF0895FC01818185FFFDCF608363
S113388080E090E00895FC0181818823ECF7808139
S113389008954F925F926F927F928F929F92AF9210
S11338A0BF92CF92DF92EF92FF920F931F93CF9329
S11338B0DF93EC014A015B0128013901D901C801F8
S11338C0689412F8B695A795979587951694D1F7AD
S11338D0B901A801032E36E176956795579547956A
S11338E03A95D1F7302D2B8122FD08C0B695A795C6
S11338F09795879576956795579547958815990572
S1133900AA05BB0508F4A2C084169506A606B70648
S113391008F49EC08B8182FD04C0880C991CAA1CEB
S1133920BB1CC301B201A50194019BD32F3F3105F8
S11339304105510508F48EC0C12CD12C7601CA94DE
S113394019EF05C02C153D054E055F0568F0CC0C3C
S1133950DD1CEE1CFF1C1D3F14F46894C0F81F5FAF
S1133960173081F7212F4EC0212F11230CF04AC0AC
S1133970D501C401880F991FAA1FBB1F880F991F67
S1133980AA1FBB1F880F991FAA1FBB1F481A590AD9
S11339906A0A7B0A1E3FECF46DEF7FEF611B71092D
S11339A017FD739504C0440C551C661C771C6A955E
S11339B0D2F7D501C401B695A79597958795BC0113
S11339C0CD01640D751D861D971DA501940149D374
S11339D034C023E0210FD501C40104C0880F991F0E
S11339E0AA1FBB1F2A95D2F79C01AD01B695A795D6
S11339F097958795BC01CD01640D751D861D971D96
S1133A0030D31BC02D5FD501C40104C0880F991F9A
S1133A10AA1FBB1F2A95D2F79C01AD01B695A795A5
S1133A2097958795BC01CD01640D751D861D971D65
S1133A3018D32150310941095109832F8F701295F0
S1133A40107F182B1F832E8381E018C080E016C0DE
S1133A5080E014C0D501C401880F991FAA1FBB1FA1
S1133A60880F991FAA1FBB1F880F991FAA1FBB1F6E
S1133A70481A590A6A0A7B0A19EF8ECFDF91CF914F
S1133A801F910F91FF90EF90DF90CF90BF90AF9078
S1133A909F908F907F906F905F904F9008950F93B9
S1133AA01F93CF93DF93EC018B01009709F477C048
S1133AB0C11584E0D80721F464E080E017D96FC011
S1133AC0C038E1E0DE0721F462E080E00FD967C08E
S1133AD0C115F1E0DF0721F461E080E007D95FC0A0
S1133AE0C03883E0D80721F461E081E0FFD857C0F3
S1133AF0C115E2E0DE0721F462E081E0F7D84FC0AF
S1133B00C115F3E0DF0721F464E081E0EFD847C09A
S1133B10C11588E0D80721F461E083E0E7D83FC00D
S1133B20C034E8E0DE0721F462E083E0DFD837C088
S1133B30C034F9E0DF0721F462E084E0D7D82FC075
S1133B40C03B88E0D80721F464E083E0CFD827C0E5
S1133B50C03EE8E0DE0721F468E083E0C7D81FC078
S1133B60C03CF8E0DF0721F460E183E0BFD817C070
S1133B70C03C89E0D80721F460E184E0B7D80FC0E5
S1133B80C038E4E0DE0721F460E483E0AFD807C086
S1133B90C036F4E0DF0719F460E880E0A7D88C8130
S1133BA08F738C83F80194818581892B9681992365
S1133BB011F098E001C090E0892B8C83F8014081DA
S1133BC051816281738100E018E428EE31E0CE0176
S1133BD060DE9B8198609B839B8190619B83DF91D6
S1133BE0CF911F910F9108955058BB27AA270ED04B
S1133BF070C161D130F066D120F031F49F3F11F4EF
S1133C001EF456C10EF4E095E7FB4CC1E92F72D1C6
S1133C1080F3BA17620773078407950718F071F4E5
S1133C209EF58AC10EF4E0950B2EBA2FA02D0B0140
S1133C30B90190010C01CA01A0011124FF27591BED
S1133C4099F0593F50F4503E68F11A16F040A22FF3
S1133C50232F342F4427585FF3CF46953795279564
S1133C60A795F0405395C9F77EF41F16BA0B620B63
S1133C70730B840BBAF09150A1F0FF0FBB1F661FAA
S1133C80771F881FC2F70EC0BA0F621F731F841FED
S1133C9048F4879577956795B795F7959E3F08F013
S1133CA0B3CF9395880F08F09927EE0F97958795D2
S1133CB00895D4D008F481E008950CD00AC102D14B
S1133CC040F0F9D030F021F45F3F19F0EBC051110E
S1133CD034C1EEC00FD198F39923C9F35523B1F33E
S1133CE0951B550BBB27AA2762177307840738F067
S1133CF09F5F5F4F220F331F441FAA1FA9F333D0C6
S1133D000E2E3AF0E0E830D091505040E695001C79
S1133D10CAF729D0FE2F27D0660F771F881FBB1F35
S1133D20261737074807AB07B0E809F0BB0B802D0F
S1133D30BF01FF2793585F4F2AF09E3F510568F05B
S1133D40B1C0FBC05F3FECF3983EDCF386957795FA
S1133D506795B795F7959F5FC9F7880F911D96955D
S1133D60879597F90895E1E0660F771F881FBB1FB9
S1133D70621773078407BA0720F0621B730B840B66
S1133D80BA0BEE1F88F7E0950895BCD088F09F57D2
S1133D9090F0B92F9927B751A0F0D1F0660F771F93
S1133DA0881F991F1AF0BA95C9F712C0B13081F073
S1133DB0C3D0B1E00895C0C0672F782F8827B85FBB
S1133DC039F0B93FCCF3869577956795B395D9F7D4
S1133DD03EF490958095709561957F4F8F4F9F4FDE
S1133DE00895E89409C097FB3EF4909580957095EA
S1133DF061957F4F8F4F9F4F9923A9F0F92F96E933
S1133E00BB279395F695879577956795B795F111A7
S1133E10F8CFFAF4BB0F11F460FF1BC06F5F7F4F44
S1133E208F4F9F4F16C0882311F096E911C0772356
S1133E3021F09EE8872F762F05C0662371F096E85F
S1133E40862F70E060E02AF09A95660F771F881F2E
S1133E50DAF7880F9695879597F90895990F0008D2
S1133E60550FAA0BE0E8FEEF16161706E807F90748
S1133E70C0F012161306E407F50798F0621B730BE3
S1133E80840B950B39F40A2661F0232B242B252B64
S1133E9021F408950A2609F4A140A6958FEF811D07
S1133EA0811D089597F99F6780E870E060E00895A8
S1133EB09FEF80EC089500240A941616170618063E
S1133EC00906089500240A9412161306140605061A
S1133ED00895092E0394000C11F4882352F0BB0FAB
S1133EE040F4BF2B11F460FF04C06F5F7F4F8F4F0E
S1133EF09F4F089557FD9058440F551F59F05F3F49
S1133F0071F04795880F97FB991F61F09F3F79F0F7
S1133F1087950895121613061406551FF2CF469579
S1133F20F1DF08C0161617061806991FF1CF8695FB
S1133F307105610508940895E894BB2766277727DF
S1133F40CB0197F908958ADF08F48FEF08950BD019
S1133F50C0CFB1DF28F0B6DF18F0952309F0A2CF67
S1133F60A7CF1124EACFC6DFA0F3959FD1F3950F15
S1133F7050E0551F629FF001729FBB27F00DB11DE9
S1133F80639FAA27F00DB11DAA1F649F6627B00D79
S1133F90A11D661F829F2227B00DA11D621F739F62
S1133FA0B00DA11D621F839FA00D611D221F749F70
S1133FB03327A00D611D231F849F600D211D822FB7
S1133FC0762F6A2F11249F5750408AF0E1F08823FE
S1133FD04AF0EE0FFF1FBB1F661F771F881F91500B
S1133FE05040A9F79E3F510570F05CCFA6CF5F3FCC
S1133FF0ECF3983EDCF3869577956795B795F7953E
S1134000E7959F5FC1F7FE2B880F911D96958795C5
S113401097F90895AA1BBB1B51E107C0AA1FBB1F38
S1134020A617B70710F0A61BB70B881F991F5A9540
S1134030A9F780959095BC01CD01089597FB072EB3
S113404016F4009406D077FD08D0E4DF07FC05D011
S11340503EF4909581959F4F0895709561957F4F9B
S11340600895A1E21A2EAA1BBB1BFD010DC0AA1FB5
S1134070BB1FEE1FFF1FA217B307E407F50720F0CD
S1134080A21BB30BE40BF50B661F771F881F991F48
S11340901A9469F760957095809590959B01AC0191
S11340A0BD01CF010895EE0FFF1F0590F491E02D9F
S10940B00994F894FFCF0F
S11340B66464646666663F0000803F6B001200031A
S11340C60080808080808080808080808080808066
S11340D680808080808080808080808080808080D6
S11340E680808080808080808080808080808080C6
S11340F680808080808080808080808080808080B6
S113410680808080808080808080808080808080A5
S11341168080808080808080808080808080808095
S11341268080808080808080808080808080808085
S11341368080808080808080808080808080808075
S11341468080808080808080808080808080808065
S11341568080808080808080808080808080808055
S11341668080808080808080808080808080808045
S11341768080808080808080808080808080808035
S1134186808080800100960000030000FF0000008C
S1134196FF000000FF808080808080808080808097
S11341A606604038E02E302A201CC0126009000048
S11341B600808000808000008000000000008000F5
S11341C600808000808000000000000000000000E5
S11341D680800000000080800000000080800000D5
S11141E60000000000808000808000808000C7
S9030000FC
