:10000000CEC30000E9C30000E7C30000E5C3000061
:10001000E3C30000E1C30000DFC30000DDC3000054
:10002000DBC300000C94B20BD7C300000C94361B4A
:100030000C947A180C94A3180C94CC180C94F51802
:100040000C941E190C9447190C9470190C9499195E
:100050000C94C2190C94EB19BFC300000C94B50D9D
:10006000BBC30000B9C30000B7C30000B5C30000A4
:10007000B3C30000B1C30000AFC30000ADC30000B4
:10008000ABC30000A9C300000C9441170C944912A3
:100090000C94141A0C943D1A0C94661A0C948F1A32
:1000A0000C943E0E99C3000097C30000180C1D0C61
:1000B0004F0C4F0C4F0C4F0C4F0C4F0C4F0C4F0C68
:1000C0004F0C4F0C4F0C4F0C4F0C4F0C220C4F0C85
:1000D0004F0C4F0C4F0C4F0C4F0C4F0C4F0C4F0C48
:1000E0004F0C4F0C4F0C4F0C4F0C4F0C4F0C270C60
:1000F0002C0C4F0C4F0C4F0C4F0C4F0C4F0C4F0C4B
:100100004F0C4F0C4F0C4F0C4F0C4F0C4F0C310C35
:10011000360C4F0C4F0C4F0C4F0C4F0C4F0C4F0C20
:100120004F0C4F0C4F0C4F0C4F0C4F0C4F0C3B0C0B
:10013000400C4F0C4F0C4F0C4F0C4F0C4F0C4F0CF6
:100140004F0C4F0C4F0C4F0C4F0C4F0C4F0C450CE1
:100150004A0C0F0F1E0F620F670F6C0F710F8C0F81
:100160008C0F8C0F8C0F8C0F8C0F8C0F8C0F8C0FB7
:100170008C0F8C0F8C0F8C0F8C0F8C0F8C0F8C0FA7
:100180008C0F8C0F8C0F8C0F8C0F8C0F8C0F8C0F97
:100190008C0F8C0F8C0F8C0F8C0F8C0F8C0F8C0F87
:1001A0008C0F8C0F8C0F8C0F8C0F8C0F8C0F8C0F77
:1001B0008C0F8C0F8C0F8C0F8C0F8C0F8C0F8C0F67
:1001C0008C0F8C0F8C0F8C0F8C0F8C0F8C0F8C0F57
:1001D0008C0F8C0F780F860E8C0F8C0F8C0F7E0F70
:1001E000870F8C0F8C0F8C0F8C0F760F8C0F8C0F52
:1001F000F30E8C0F8C0F8C0F800F8C0F8C0F8C0FCD
:100200008C0F8C0F8C0F8C0F8C0F8C0F8C0F8C0F16
:100210008C0F8C0F8C0F7C0F8C0F8C0F8C0F8C0F16
:100220008C0F8C0F8C0F8C0F8C0F8C0F8C0F8C0FF6
:100230007A0F2A0F320F3A0F420F4A0F520F5A0FFE
:100240004D159315A11577155B15851569150000DA
:1002500014005000B4004001F301CD02CD03F304BB
:100260003D06AD073F09F40AC90CBF0ED4100713B1
:100270005515BE17411ADB1C8B1F502227250F284E
:10028000062B0A2E193132345237773AA03DCB4033
:10029000F5431C473F4A5C4D70507A537856675976
:1002A000475C155FCF61756403677969D66B166E1D
:1002B0003A703F722674EB758F770F796D7AA57B54
:1002C000B87CA57D6C7E0B7F837FD37FFB7FFB7F1C
:1002D000D37F837F0B7F6C7EA57DB87CA57B6D7AF9
:1002E0000F798F77EB7526743F723A70166ED66B66
:1002F000796903677564CF61155F475C6759785604
:100300007A5370505C4D3F4A1C47F543CB40A03DAB
:10031000773A5237323419310A2E062B0F28272507
:1003200050228B1FDB1C411ABE1755150713D41022
:10033000BF0EC90CF40A3F09AD073D06F304CD0317
:10034000CD02F3014001B400500014000000000190
:10035000010202020203030303030304040404046E
:10036000040404050505050505050505050606063D
:100370000606060606060606060707070707070716
:1003800007070707070707080808080808080808F4
:1003900008080808080808090909090909090909D4
:1003A0000909090909090909090A0A0A0A0A0A0AB6
:1003B0000A0A0A0A0A0A0A0A0A0A0A0A0A0B0B0B9A
:1003C0000B0B0B0B0B0B0B0B0B0B0B0B0B0B0B0B7D
:1003D0000B0B0B0C0C0C0C0C0C0C0C0C0C0C0C0C60
:1003E0000C0C0C0C0C0C0C0C0C0C0C0D0D0D0D0D48
:1003F0000D0D0D0D0D0D0D0D0D0D0D0D0D0D0D0D2D
:100400000D0D0D0D0D0E0E0E0E0E0E0E0E0E0E0E11
:100410000E0E0E0E0E0E0E0E0E0E0E0E0E0E0E0EFC
:100420000E0F0F0F0F0F0F0F0F0F0F0F0F0F0F0FDD
:100430000F0F0F0F0F0F0F0F0F0F0F0F0F0F0F10CB
:1004400010101010101010101010101010100006C6
:10045000080A0B0D0E0F101112131414151617178E
:100460001819191A1B1B1C1C1D1D1E1E1F1F2020C6
:100470002121222223232424252526262627272836
:10048000282829292A2A2A2B2B2B2C2C2D2D2D2EBE
:100490002E2E2F2F2F303030313131323232333354
:1004A00033343434343535353636363737373738F4
:1004B0003838393939393A3A3A3B3B3B3B3C3C3C9A
:1004C0003C3D3D3D3D3E3E3E3E3F3F3F3F40000BBD
:1004D000101417191C1E2022242627292A2C2D2F00
:1004E00030313334353637393A3B3C3D3E3F40417D
:1004F0004243444546474848494A4B4C4D4E4E4F6F
:10050000505152525354555556575858595A5B5B8F
:100510005C5D5D5E5F5F60616162636364656566CB
:1005200066676868696A6A6B6B6C6D6D6E6E6F6F1B
:100530007071717272737374747576767777787878
:1005400079797A7A7B7B7C7C7D7D7E7E7F7F0010D3
:10055000171C2024272A2D303335373A3C3E4042A1
:10056000444648494B4D4E505253555658595B5C82
:100570005D5F60616364656668696A6B6D6E6F700C
:1005800071727374767778797A7B7C7D7E7F8081D7
:1005900082838485868788898A8B8B8C8D8E8F90C9
:1005A00091929394949596979899999A9B9C9D9ED5
:1005B0009E9FA0A1A2A2A3A4A5A6A6A7A8A9A9AAF6
:1005C000ABACACADAEAFAFB0B1B1B2B3B4B4B5B625
:1005D000B6B7B8B9B9BABBBBBCBDBDBEBFBFC0C161
:1005E000C1C2C3C3C4C5C5C6C7C7C8C8C9CACACBA8
:1005F000CCCCCDCECECFCFD0D1D1D2D2D3D4D4D5F6
:10060000D5D6D7D7D8D8D9DADADBDBDCDDDDDEDE4C
:10061000DFDFE0E1E1E2E2E3E3E4E5E5E6E6E7E7A8
:10062000E8E8E9EAEAEBEBECECEDEDEEEEEFEFF00B
:10063000F1F1F2F2F3F3F4F4F5F5F6F6F7F7F8F872
:10064000F9F9FAFAFBFBFCFCFDFDFEFEFFFF70076B
:10065000780F74177C1F72277A2F76377E3F714789
:10066000794F75577D5F73677B6F6003680B641309
:100670006C1B62236A2B66336E3B6143694B655387
:100680006D5B5005580D54155C1D52255A2D56357D
:100690005E3D5145594D4001480944114C194221D4
:1006A0004A2946314E393006380E34163C1E322661
:1006B0003A2E2002280A24122C1A1004180C427612
:1006C000FC30825A825AFC3042768A7DF918427692
:1006D000FC306E6A1D47825A825A1D476E6AFC3092
:1006E0004276F9188A7D627F8C0C8A7DF9187D7AB2
:1006F00028254276FC30E370573C6E6A1D47F26253
:100700003451825A825A3451F2621D476E6A573C04
:10071000E370FC30427628257D7AF9188A7D8C0CAE
:10072000627FD97F4806627F8C0C9D7EC8128A7DCD
:10073000F9182A7C1A1F7D7A282585781F2B427686
:10074000FC30B673BA36E370573CCA6DCE416E6A60
:100750001D47D066404CF2623451D75EF655825A3E
:10076000825AF655D75E3451F262404CD0661D472E
:100770006E6ACE41CA6D573CE370BA36B673FC3030
:1007800042761F2B857828257D7A1A1F2A7CF91836
:100790008A7DC8129D7E8C0C627F4806D97F112409
:1007A0001FBECFEFCDBFDFE2DEBF11E2A0E0B0E2BF
:1007B000E0E4F1E402C005900D92A030B107D9F752
:1007C0002AE2A0E0B1E201C01D92AF3AB207E1F720
:1007D0000E94A0140C949E2013CC60918000627043
:1007E000616024E0829FC00111248C73682B80E833
:1007F00090E00E942018E0E8F0E0828180FDFDCFCB
:100800000895609180006C73636080E890E00E94BE
:100810002018E0E8F0E0828180FDFDCF08951F936D
:10082000CF93DF93CDB7DEB76197CDBFDEBF182F73
:10083000BE016F5F7F4F80E092E00E94AE1799810A
:100840002A812F7822612A8382E08C83917E9061B5
:1008500099831B828FB7F89498E0909308028FBF1A
:10086000BE016F5F7F4F80E092E00E946F17AE0184
:10087000485F5F4F61E080E092E00E94F81714301B
:10088000B9F028F4113041F0123061F021C0153078
:10089000A9F01630C1F01CC0198A81E0888780E277
:1008A000898716C0198A8AE0888788E0898710C0FE
:1008B000198A8AE0888783E189870AC081E088876E
:1008C00080E6898705C0188688E0898786E4898B59
:1008D0008A851C86807F8A87AE01485F5F4F61E012
:1008E00080E092E00E94D01780E092E00E9417170B
:1008F0009FB7F894E0E0F2E08081846080839FBF3E
:10090000868180FFFDCF81E0809306026196CDBF96
:10091000DEBFDF91CF911F9108951F93CF93DF9397
:10092000CDB7DEB72A97CDBFDEBF182FAE014F5F20
:100930005F4F61E080E092E00E94F8171430B9F058
:1009400028F4113041F0123061F021C01530A9F0C7
:100950001630C1F01CC01A8681E0898380E28A8348
:1009600016C01A868AE0898388E08A8310C01A86B6
:100970008AE0898383E18A830AC081E0898380E6F3
:100980008A8305C0198288E08A8386E48A87AE015B
:100990004F5F5F4F61E080E092E00E94D0172A969F
:1009A000CDBFDEBFDF91CF911F910895809141218E
:1009B000843009F44CC028F4813051F0823009F1C0
:1009C0000895853009F469C0863009F475C008952A
:1009D0000E94D60F811192C08091412180934021C5
:1009E00086E0809341218091412197DF80E098E06B
:1009F0000E94B81A80E498E00E94EA1A0C9406104B
:100A0000089580910121909102219C012F5F3F4F19
:100A10002093012130930221880F991FFC01EE5889
:100A2000F64D4083518380910121909102218038BD
:100A3000910508F463C0109201211092022181E017
:100A40008093002180E098E00C94EA1A0895809148
:100A50000121909102219C012F5F3F4F20930121A2
:100A600030930221880F991FFC01EE58F64D408308
:100A7000518380910121909102218038910508F4E1
:100A80003DC0109201211092022181E0809300214B
:100A900080E098E00C94EA1A089540933C2150932A
:100AA0003D2181E080933921809140218093412133
:100AB0008091412132CF089540933A2150933B21B8
:100AC00081E0809338210E94D60F8823B9F04FEF40
:100AD00060E080E00E94DB0F809141218093402103
:100AE00081E0809341218091412117DF80E098E0EF
:100AF0000E94EA1A80E498E00C94B81A0895CF9303
:100B0000DF93CDB7DEB72A97CDBFDEBF80E092E09E
:100B10000E942E17AE014F5F5F4F61E080E092E0D0
:100B20000E94F817E0EAF0E082818160828366ED3E
:100B300074E080E092E00E94EE168B818C7F8160F1
:100B40008B83AE014F5F5F4F61E080E092E00E94D7
:100B5000D01780E092E00E94171778942A96CDBFB4
:100B6000DEBFDF91CF910895662369F0FC01AC01EF
:100B7000460F511D80E090E02191820F911DE417F6
:100B8000F507D1F702C080E090E070E00E944F20AE
:100B9000862F08958F929F92AF92BF92EF92FF920D
:100BA0000F931F93CF93DF9380911721909118217A
:100BB000A0911921B0911A2180930B2190930C21BF
:100BC000A0930D21B0930E218091132190911421B7
:100BD000A0911521B09116218093072190930821AF
:100BE000A0930921B0930A2180910F2190911021A7
:100BF000A0911121B091122180930321909304219F
:100C0000A0930521B093062110921721109218216C
:100C10001092192110921A2110921321109214216E
:100C2000109215211092162110920F21109210216E
:100C3000109211211092122100910F20109110207A
:100C40001016110644F5812C912C54010F2EFFEA49
:100C5000EF2EF5E2FF2EF02DC0E0D0E0F7018191FC
:100C600091917F01BC0180E090E00E94361F9B01C2
:100C7000AC01C501B4010E943A1E4B015C012196F2
:100C8000C017D1075CF360931721709318218093EC
:100C9000192190931A21C0910D20D0910E20C00FE0
:100CA000D11F0C171D076CF5809013219090142113
:100CB000A0901521B0901621C801880F991F9C01A2
:100CC00021553A4D7901F701819191917F01BC0144
:100CD00080E090E00E94361F9B01AC01C501B40189
:100CE0000E943A1E4B015C010F5F1F4F0C171D073E
:100CF00054F36093132170931421809315219093E2
:100D00001621E0900B20F0900C20EC0EFD1ECE156D
:100D1000DF0554F580900F2190901021A0901121B3
:100D2000B09012218E01000F111F01551A4DF801CC
:100D3000819191918F01BC0180E090E00E94361F6B
:100D40009B01AC01C501B4010E943A1E4B015C013C
:100D50002196CE15DF055CF360930F21709310216F
:100D6000809311219093122110911721D091182175
:100D7000C091192100911A2180900720909008209D
:100D8000A0900920B0900A20A5019401612F7D2F29
:100D90008C2F902F0E94E81F1816ECF02091132141
:100DA000309114214091152150911621C501B401B3
:100DB0000E949E1E88237CF020910F2130911021EB
:100DC0004091112150911221C501B4010E949E1E33
:100DD00088230CF045C0A0901321B0901421E0901E
:100DE0001521F09016212A2D3B2D4E2D5F2D612FC0
:100DF0007D2F8C2F902F0E94E81F181624F01A2D9B
:100E0000DB2DCE2D0F2DA0900F21B0901021E09062
:100E10001121F09012212A2D3B2D4E2D5F2D612F97
:100E20007D2F8C2F902F0E94E81F181624F01A2D6A
:100E3000DB2DCE2D0F2D812F9D2FAC2FB02F80932A
:100E40006E2990936F29A0937029B0937129809394
:100E5000072090930820A0930920B0930A2014C083
:100E600020910320309104204091052050910620CC
:100E7000C501B4010E94EC1F609307207093082005
:100E80008093092090930A2020911B2130911C21EE
:100E900040911D2150911E216091072070910820E2
:100EA0008091092090910A200E94391E9B01AC017B
:100EB00060E070E08FE793E40E94A21E4B015C01AA
:100EC00020911721309118214091192150911A2118
:100ED0000E94EC1F0E940A1FD62F60939925209133
:100EE0001321309114214091152150911621C501F3
:100EF000B4010E94EC1F0E940A1FC62F60936C2849
:100F000020910F21309110214091112150911221F7
:100F1000C501B4010E94EC1F0E940A1F60936D2955
:100F20008091232190912421FC01EA54FF4DD0832C
:100F3000E0912121F0912221DF01A05EBF4DCC93F1
:100F400020911F2130912021D901AF5EBF4D6C93BC
:100F500001966EE170E00E946320809323219093BC
:100F60002421CF01019666E970E00E9463208093FE
:100F7000212190932221C90101966FE070E00E9427
:100F8000632080931F21909320216FE081E190E204
:100F9000EBDDD82F80936D2966E980E290E2E4DDF5
:100FA000C82F80936C286EE186EB90E2DDDD6091C6
:100FB000022024E6289FC001112470E00E946320D3
:100FC000162F60939925A09101202C9FC001112418
:100FD0006A2F70E00E94632060936C28309100209B
:100FE0002D9FC0011124632F70E00E946320862F83
:100FF00060936D29ECEDF0E220819181921740F031
:1010000020819281921720F0412F80E0D4D720C018
:10101000ECEDF0E221819081921740F021819281E4
:10102000921720F0412F60E0C6D712C0ECEDF0E23D
:1010300022819081921740F022819181921720F0B5
:1010400040E0612FB8D704C0412F682F80E0B3D7AC
:10105000DF91CF911F910F91FF90EF90BF90AF90D4
:101060009F908F9008952F923F924F925F926F9230
:101070007F928F929F92AF92BF92CF92DF92EF9228
:10108000FF920F931F93CF93DF932F923F924F9234
:101090005F92FF920F931F93CF93DF93C2E7D9E242
:1010A000EEE4F2E0FF2440E8659175910881198132
:1010B000970320010E034F1C10019E035F08300CA4
:1010C000411C5F1CF8035F08300C411C5F1C4992F7
:1010D00059924A9549F7DF91CF911F910F91FF9057
:1010E0005F904F903F902F9011242F923F926F92DC
:1010F0007F92CF93DF93EEE4F6E048E3A591BB2720
:10110000AA0FBB1FAE58B64D2D903C90C591DD2760
:10111000CC0FDD1FCE58D64D688079807C926E92C0
:10112000288239824A9551F7DF91CF917F906F9055
:101130003F902F902F923F924F925F926F927F92AB
:101140008F929F92AF92BF92CF92DF92EF92FF92D7
:101150000F931F93CF93DF93FF2400E1E02EC2E7AC
:10116000D9E2688079804A805B80759467944301F6
:1011700055944794640C751C84189508AC80BD8008
:101180004E805F80B594A794650155944794A40C54
:10119000B51CC418D508688579854A845B84759523
:1011A00067958B0155944794640D751D04191509B5
:1011B0008C859D854E845F84959587959C0155947B
:1011C0004794840D951D241935097594679423015E
:1011D000B594A7946A0C7B1C4A185B089594879475
:1011E0005401D594C7948C0C9D1CAC18BD08759502
:1011F00067956B0195958795680F791FC81AD90A6D
:1012000075946794130175956795660E771E261A77
:10121000370A42E85AE51503C001049FB0011403E0
:101220009F09700D811D9F1D509F700D811D9F1D79
:10123000959487948401880E991E081B190B559468
:101240004794D201D594C7944C0C5D1CAC19BD09D0
:101250003503C001249FB00134039F09700D811D27
:101260009F1D529F700D811D9F1DB594A794650110
:10127000A80EB91EC81AD90A6992799289929992D0
:1012800049925992A992B992299239920993199344
:10129000A993B993C992D992EA9409F062CF00E276
:1012A000C02EDD240AE2902EEEEBF6E000E1A02E47
:1012B000BB2404E0E02EA2E7B9E2ED01CA0DDB1D7C
:1012C0008E2C2D903C904880598035942794310184
:1012D00055944794640C751C24183508299239924A
:1012E0007C926E92AC0DBD1D1197EA940881198114
:1012F0003C912E9145915591659175911502200172
:10130000049F100114035F08300C411C5F1C509FA8
:10131000300C411C5F1C37023001269F200C311C11
:10132000461C571C36035F08300C411C5F1C729F23
:10133000300C411C5F1C0E01CA19DB092880398062
:10134000359427943101640C751C24183508688283
:101350007982E0012992399217022001069F10013B
:1013600016035F08300C411C5F1C709F300C411C41
:101370005F1C35023001249F2018310846085708A9
:1013800034035F1C301841085F08529F3018410831
:101390005F080D01AA19BB092D903C903594279444
:1013A0003101640C751C241835087C926E92D001B2
:1013B0002D923C921297EA9409F098CFDE01AA1977
:1013C000BB092D903C904880598035942794310179
:1013D00055944794640C751C24183508288239826A
:1013E0007C926E92C50196958795C80FD91FC2371A
:1013F000D90540F4DE01CA0DDB1DE82CEA19FB0912
:1014000034965FCF85FC06C0EA2CE6945601CC0CDE
:10141000DD1C51CFDF91CF911F910F91FF90EF9085
:10142000DF90CF90BF90AF909F908F907F906F9004
:101430005F904F903F902F9011242F923F924F92A8
:101440005F926F927F928F92FF920F931F93CF9331
:10145000DF93A2E7B9E2CFEAD5E2E2E7FAE24F0191
:10146000FF2440E40D911D91980106C0F4010D91F7
:101470001D91329122914F0111022001009F100114
:1014800098035F08300C411C5F1C33023001229F1F
:10149000200C311C461C571CBA035F08300C411C41
:1014A0005F1C1127552061F018E0F201F03428F597
:1014B000330CEE1FFF1F330CEE1FFF1F1A951DC0CC
:1014C000442069F014E0F42DE32DF034B0F4220C44
:1014D000EE1FFF1F220CEE1FFF1F1A95F6CFF10122
:1014E000F03458F4F03160F4F13078F0F295E29590
:1014F000EF70EF2BE695F1E008C0EF2FF2E005C0AA
:10150000EE0FFF1FEF2FE068F1E0E25BFC4F04916C
:101510002227112321F0000F221F1A95E1F70993CA
:1015200029934A9509F0A2CFDF91CF911F910F9196
:10153000FF908F907F906F905F904F903F902F9093
:10154000112428DB10920021DF91CF911F910F9180
:10155000FF90EF90DF90CF90BF90AF909F908F90D3
:101560007F906F905F904F903F902F9008951F93C2
:10157000CF93DF93162FC82FD0E0CE010E944B18D7
:10158000CE010E94261891E0181390E0892FDF9178
:10159000CF911F910895CF93DF93CDB7DEB72997F1
:1015A000CDBFDEBF80E89AE1A6E0B0E089839A83F0
:1015B000AB83BC8383E290E0A0E0B0E08D839E83A8
:1015C000AF83B88780E5898760E483E00E94AF1627
:1015D000BE016F5F7F4F80E894E00E94001CE0E84E
:1015E000F4E081818860818378942996CDBFDEBF45
:1015F000DF91CF91089540E059E160E280E496E008
:101600000E94C61680E28093B000E0E4F6E0828794
:1016100081E08187E0EAF0E08281816082837894D2
:10162000089541E050E060E280E096E00E94C61636
:1016300041E050E060E480E096E00E94C61641E0A0
:1016400050E060E880E096E00E94C61641E050E07D
:1016500060E480E696E00E94C61641E050E061E05A
:1016600080EE97E00E94C61641E050E061E080E61F
:1016700096E00E94C61641E050E062E080E696E007
:101680000C94C6160895CF93DF93CDB7DEB761975C
:10169000CDBFDEBF95E5998394E09A8395E19B8366
:1016A0008C836D834E83BE01695F7F4F8BE0FB01AE
:1016B00011928A95E9F785E28F83CE0101968D8795
:1016C0009E8786E090E08F87988B40E080E894E0EA
:1016D0000E94151C81E0809330216196CDBFDEBF52
:1016E000DF91CF910895CF93DF93CDB7DEB76097A9
:1016F000CDBFDEBF95E5998393E09A8396E19B8306
:101700008C836D83BE016A5F7F4F8BE0FB0111927A
:101710008A95E9F785E28E83CE0101968C879D87B5
:1017200085E090E08E879F8740E080E894E00E940B
:10173000151C81E0809330216096CDBFDEBFDF9124
:10174000CF910895D0DF82E197E202C0019721F0A6
:101750002091D4202130D1F381E08093D420809156
:101760002B2108951F920F920FB60F9211240F9301
:101770001F932F933F934F935F936F937F938F9319
:101780009F93AF93BF93EF93FF93CF93DF93CDB727
:10179000DEB76197CDBFDEBF80E280934C068091BB
:1017A0003021882321F0813009F47FC09CC0FE01E4
:1017B0003C9686E0DF011D928A95E9F7BE016F5FD6
:1017C0007F4F8BE0DB011D928A95E9F785E28983E3
:1017D000EF83F88786E090E089879A8741E080E888
:1017E00094E00E94151C8D8582FB002700F910E013
:1017F0000093732A012B09F476C0A2E7BAE2887736
:1018000090E09595879595958795959587958C9377
:101810008E85E82FEF771796EC938E2F90E0FC01E2
:101820007097E335F105D8F5EA5AFF4F0C949820EC
:1018300080EA8093252181E035C081EA80932521CB
:1018400082E030C082EA8093252183E02BC083EAC6
:101850008093252184E026C083EA8093252184E0BB
:1018600021C084EA8093252185E01CC084EA80930E
:10187000252185E017C085EA8093252186E012C0E6
:1018800085EA8093252186E00DC086EA8093252194
:1018900087E008C086EA8093252187E003C0109284
:1018A000252180E080932F211EC0BE016F5F7F4FF6
:1018B0008BE0FB0111928A95E9F785E2898306E2C4
:1018C00011E20F83188789E090E089879A8741E0C9
:1018D00080E894E00E94151C10923021D8011396E4
:1018E0008C918093D4206196CDBFDEBFDF91CF91E4
:1018F000FF91EF91BF91AF919F918F917F916F91E8
:101900005F914F913F912F911F910F910F900FBEBB
:101910000F901F901895E0E0F8E08485816084873F
:1019200081E080937B2A9FB7F894E0E0F2E0808129
:10193000846080839FBF089581E080937C2AE0E4E7
:10194000F9E0848581608487089581E080937A2A14
:10195000E0E4F8E0848581608487A3C30895CF9391
:10196000DF9380E098E00E94B81AC0E0D8E08E8152
:101970008C7F8E838E8181608E838981887F89832D
:101980006BE87CE080E098E00E941C1B80E590E022
:101990008EA39FA38881807F84608883E0EAF0E043
:1019A0008281816082837894DF91CF910895CF9373
:1019B000DF93C0E4D8E08E818C7F8E838E8182603D
:1019C0008E838981887F898365EA7CE080E498E062
:1019D0000E941C1B84E294EF8EA39FA38881807FCA
:1019E00086608883E0EAF0E0828182608283789476
:1019F000DF91CF910895CF93DF9380E499E00E9427
:101A0000B81AC0E4D9E08E818C7F8E838E8181608C
:101A10008E838981887F89836CE97CE080E499E00A
:101A20000E941C1B82EA90E08EA39FA38881807F86
:101A300087608883E0EAF0E0828181608283789425
:101A4000DF91CF91089543E050E068E080E696E0B2
:101A50000E94C61640E050E064E080E696E00E94F6
:101A6000C61665ED70E280EC99E00E94971DE0ECEF
:101A7000F9E0828180638283E0EAF0E08281846021
:101A8000828378940895682F80EC98E00C94681C09
:101A90000895CF93DF93ACEDB0E28C91E5E9FAE2E3
:101AA000808311968C911197818312968C91129755
:101AB00082838C91818711968C91119782871296DF
:101AC0008C911297838713968C9113978383149626
:101AD0008C911497848315968C9115978583139612
:101AE0008C911397848714968C91149785871596FB
:101AF0008C911597868716968C91169786831796E4
:101B00008C911797878318968C91189780871696D3
:101B10008C911697878717968C911797808B1896BC
:101B20008C91818BC0E0D0E0FE01E452FF4D6081DA
:101B30002196CE010E944B18C930D105A9F736D2A3
:101B4000811104C066E085E99AE2DCD6DF91CF918D
:101B5000089580913321089580913221109232218D
:101B6000089581E08093322108951F920F920FB65D
:101B70000F9211242F933F934F935F936F937F9313
:101B80008F939F93AF93BF93EF93FF9380EC98E075
:101B90000E94761C9091362191110EC08F3049F42D
:101BA00081E08093362196E09093F2208093352156
:101BB00038C01092362135C0292F30E06091F220D4
:101BC000462F50E04F5F5F4F24173507F1F4109216
:101BD0003621803FA9F420917D2A222361F04DE730
:101BE0005AE2FA0180E09191890F9E2F941B92177F
:101BF000D0F3811105C0109235218FEF44DF11C061
:101C0000109235218CE03FDF0CC0F901E458F54D0E
:101C100080839F5F9093362180917D2A6813809303
:101C2000F220FF91EF91BF91AF919F918F917F91A2
:101C30006F915F914F913F912F910F900FBE0F9039
:101C40001F901895893450F48734A0F48130A0F0A7
:101C5000873080F08254823078F40CC0843551F0A3
:101C600028F48D3439F0803539F404C0833611F00E
:101C7000803711F481E0089580E008951F920F925B
:101C80000FB60F9211242F933F934F935F936F934F
:101C90007F938F939F93AF93BF93CF93DF93EF93F4
:101CA000FF9340E050E080E090E0E0ECF9E007C016
:101CB0009C012F5F3F4F8131974278F4C901218108
:101CC0002223B4F72081DA01AB51BF4D2C934F5F33
:101CD0005F4F4B30510599F723C18091E520B2DF6A
:101CE000882309F419C18091E620893008F014C1D5
:101CF000E091E5208E2F90E0FC013197E037F1056F
:101D000008F00AC1E755FF4F0C9498208091E62017
:101D1000893009F001C16FEF83E4E5D3A5EEB0E2AD
:101D200012968C911297E5E9FAE2808313968C91D2
:101D30001397818314968C911497828312968C91B9
:101D40001297818713968C911397828714968C91A2
:101D50001497838715968C911597838316968C918B
:101D60001697848317968C911797858315968C9177
:101D70001597848716968C911697858717968C9160
:101D80001797868718968C911897868319968C9149
:101D9000199787831A968C911A97808718968C9139
:101DA0001897878719968C911997808B1A968C9122
:101DB000818BC0E0D0E0FE01E951FF4D8081FE0142
:101DC000E452FF4D808360812196CE010E944B1822
:101DD000C930D10581F7EAD081119EC066E085E95E
:101DE0009AE290D599C06FEF80E57DD38091E7208E
:101DF000882319F0813039F00CC01092332181E032
:101E00008093322189C081E08093332180933221F5
:101E100083C081E080933321809332217DC0809103
:101E20003321882329F01092332181E080933221DD
:101E300081E0809331216FEF56D36EC08091E7200F
:101E400090E08730910508F067C0FC01E75EFE4F27
:101E50000C9498208091E82090E080934221909308
:101E600043215AC08091E82090E08093FE20909317
:101E7000FF2052C08091E82090E08093FC20909356
:101E8000FD204AC08091E82090E08093FA20909352
:101E9000FB2042C08091E82090E08093F82090934E
:101EA000F9203AC08091E82090E08093F62090934A
:101EB000F72032C08091E82090E08093F420909346
:101EC000F5202AC08091E7208093F32025C08091DF
:101ED000E7208093022020C08091E720809301209A
:101EE0001BC08091E7208093002016C00DD314C042
:101EF00024D312C09DD310C074D30EC038D30CC0ED
:101F0000E5EEF0E2448163818281BDDB05C0E5EE50
:101F1000F0E26381828140D381E08093342106C066
:101F20008091E5208FDE8111E3CEF6CFFF91EF9116
:101F3000DF91CF91BF91AF919F918F917F916F91E1
:101F40005F914F913F912F910F900FBE0F901F9077
:101F500018950F931F93CF93DF936115710561F06F
:101F60008C01EC01060F171F699180EC99E00E942B
:101F7000681CC017D107C1F7DF91CF911F910F9156
:101F80000895982F977061E070E002C0660F771F88
:101F90009A95E2F786958695869520E2829FC00104
:101FA000112442E050E09A5FF1C608958091E8075D
:101FB00086958170089520E030E0F901EE0FFF1F53
:101FC000E20FF31FEB56F54D8083618342832F5F51
:101FD0003F4F2630310589F766E085E99AE292C4E1
:101FE000089580E0E82FF0E09F01220F331FE20FF9
:101FF000F31FEB56F54D1082118212828F5F8630EF
:1020000089F766E085E99AE27DC40895ACEDB0E217
:102010008C91E5E9FAE2808311968C911197818386
:1020200012968C911297828313968C9113978383C7
:1020300014968C911497848315968C9115978583AB
:1020400016968C911697868317968C91179787838F
:1020500018968C91189780878C91818711968C9116
:102060001197828712968C911297838713968C9181
:102070001397848714968C911497858715968C9165
:102080001597868716968C911697878717968C9149
:102090001797808B18968C91818B66E0CF0132C4A4
:1020A000089510927A2A80913721882359F18091DE
:1020B0003A2190913B219C01205635402F35310526
:1020C00048F48091FC209091FD2080933E219093D4
:1020D0003F2116C0815B94408F3A910548F480916E
:1020E000F8209091F92080933E2190933F2108C0E1
:1020F000809142219091432180933E2190933F21F2
:102100001092372153DF811114C0809141218093B7
:10211000402186E080934121809141210E948D04DD
:1021200080E098E00E94B81A80E498E00E94EA1AE1
:102130006DDF80913E2190913F212091FE203091D2
:10214000FF2082179307B8F54CDF4091F3202091D0
:102150003E2130913F216091FE207091FF20429FEF
:10216000C001439F900D11240E944F20E5E9FAE23F
:102170006083118212821382148215821682178262
:1021800010864091F3206091FE207091FF20429FC5
:10219000C001439F900D11240E944F206187128639
:1021A00013861486158616861786108A118A66E0AD
:1021B000CF01A8D364C12091FA203091FB2082176F
:1021C000930708F048C00DDF8091F320E5E9FAE2BB
:1021D00080831182128213821482158220913E2103
:1021E00030913F218091FE209091FF20A091F3201B
:1021F0006091FA207091FB20A901481B590BA49F04
:10220000C001A59F900D11240E944F206683178264
:1022100010868091F3208187128613861486158696
:1022200016868091FE209091FF204091F3206091CE
:10223000FA207091FB20281B390B429FC001439F5D
:10224000900D11240E944F206787108A118A66E042
:10225000CF0158D314C12091F6203091F720821776
:10226000930708F04CC0BDDE8091F320E5E9FAE267
:1022700080831182128220913E2130913F218091F2
:10228000FA209091FB20A091F3206091F6207091AC
:10229000F720A901481B590BA49FC001A59F900DD1
:1022A00011240E944F206383148215828091F320B1
:1022B0008683178210868091F32081871286138689
:1022C0008091FA209091FB204091F3206091F620BC
:1022D0007091F720281B390B429FC001439F900D3E
:1022E00011240E944F206487158616868091F32062
:1022F0008787108A118A66E0CF0104D3C0C020917D
:10230000F4203091F5208217930708F094C069DE1D
:10231000E5E9FAE2108220913E2130913F2180913F
:10232000F8209091F920A091F3206091F420709111
:10233000F520A901481B590BA49FC001A59F900D32
:1023400011240E944F206183128213828091F82011
:102350009091F920A091F3206091F4207091F520E4
:10236000A901481B590BA49FC001A59F900D1124E2
:102370000E944F206483158216828091F8209091EC
:10238000F920A091F3206091F4207091F520A9012B
:10239000481B590BA49FC001A59F900D11240E94BA
:1023A0004F206783108611868091F8209091F92044
:1023B000A091F3206091F4207091F520A901481BB1
:1023C000590BA49FC001A59F900D11240E944F207E
:1023D0006287138614868091F8209091F920A0914D
:1023E000F3206091F4207091F520A901481B590B4E
:1023F000A49FC001A59F900D11240E944F206587C6
:10240000168617868091F8209091F9204091F3204C
:102410006091F4207091F520281B390B429FC00178
:10242000439F900D11240E944F20608B118A66E01B
:10243000CF0168D224C0D5DDE5E9FAE210828091AF
:10244000F3208183128213828091F320848315828A
:1024500016828091F3208783108611868091F32065
:102460008287138614868091F320858716861786C7
:102470008091F320808B118A66E0CF0143D2809156
:102480003E2190913F21019680933E2190933F21E0
:1024900008951F920F920FB60F9211242F933F931E
:1024A0004F935F936F937F938F939F93AF93BF935C
:1024B000EF93FF9380E280936C0693DD82E197E2D5
:1024C0000197F1F7FF91EF91BF91AF919F918F919C
:1024D0007F916F915F914F913F912F910F900FBE20
:1024E0000F901F901895CF93DF9300D0CDB7DEB734
:1024F00089836A8362E070E0CE0101962ADD0F9045
:102500000F90DF91CF910895CF93DF9300D01F926A
:10251000CDB7DEB790913C2180913D219B838A838A
:102520008DE4898363E070E0CE01019612DD23968D
:10253000CDBFDEBFDF91CF910895CF93DF9300D061
:10254000CDB7DEB780913A2190913B216AE070E0EF
:102550000E9463206A8382E4898362E070E0CE0196
:102560000196F7DC0F900F90DF91CF910895CF93F4
:10257000DF9300D0CDB7DEB719821A8217DD8A83C8
:1025800087E4898362E070E0CE010196E2DC0F907F
:102590000F90DF91CF9108950F931F93CF93DF9307
:1025A00000D000D0CDB7DEB7182F062F19821A82BF
:1025B0001B821C82E5EEF0E263818281C3D88C83AA
:1025C0000B831A8388E4898364E070E0CE0101966E
:1025D000C0DC2496CDBFDEBFDF91CF911F910F915C
:1025E0000895CF93DF93CDB7DEB72A97CDBFDEBF77
:1025F000FE0131968AE0DF011D928A95E9F783E6B4
:102600008983319681E090E0DC01A452BF4D2C918A
:102610002193019689309105B9F76AE070E0CE0107
:10262000019697DC2A96CDBFDEBFDF91CF9108954A
:10263000CF93DF9300D0CDB7DEB719821A8289DA43
:102640008A8380E7898362E070E0CE01019681DCB5
:102650000F900F90DF91CF910895CF93DF9381E09A
:1026600090E0F4D4CCEDD0E2888382E090E0EED428
:10267000898383E090E0EAD48A8384E090E0E6D422
:102680008B8385E090E0E2D48C8386E090E0DED41A
:102690008D8387E090E0DAD48E8388E090E0D6D412
:1026A0008F8389E090E0D2D48887F3D9DF91CF91EE
:1026B00008950895982F977061E070E002C0660F4A
:1026C000771F9A95E2F786958695869520E2829FF8
:1026D000C001112441E050E09A5F58C30895DC0125
:1026E00011962C91119798E0E0E4F6E030E4222373
:1026F0000CF028C03583000000000000000000003E
:1027000000000000000000000000000000000000C9
:1027100000000000000000000000000000000000B9
:1027200000000000000036830000000000000000F0
:102730000000000000000000000000000000000099
:10274000000026C0358300000000000000000000EB
:1027500000000000000000000000000036830000C0
:102760000000000000000000000000000000000069
:102770000000000000000000000000000000000059
:102780000000000000000000000000000000000049
:10279000220F915009F0ABCF2C9198E0E0E4F6E0E5
:1027A00030E422230CF028C0358300000000000034
:1027B0000000000000000000000000000000000019
:1027C0000000000000000000000000000000000009
:1027D0000000000000000000000036830000000040
:1027E00000000000000000000000000000000000E9
:1027F00000000000000026C035830000000000003B
:1028000000000000000000000000000000000000C8
:1028100036830000000000000000000000000000FF
:1028200000000000000000000000000000000000A8
:102830000000000000000000000000000000000098
:1028400000000000220F915009F0ABCF12969C912E
:1028500088E0E0E4F6E020E499230CF028C025832A
:102860000000000000000000000000000000000068
:102870000000000000000000000000000000000058
:102880000000000000000000000000000000000048
:10289000268300000000000000000000000000008F
:1028A00000000000000000000000000026C025839A
:1028B0000000000000000000000000000000000018
:1028C000000000000000268300000000000000005F
:1028D00000000000000000000000000000000000F8
:1028E00000000000000000000000000000000000E8
:1028F00000000000000000000000990F815009F066
:10290000ABCF08950F931F93CF93DF93662351F0BE
:10291000062FC82FD92F10E0CE01E1DE1F5F2396CE
:102920001013FACF80E48093460689EF90E0019778
:10293000F1F700C00000DF91CF911F910F91089532
:10294000CF93DF93CDB7DEB72A97CDBFDEBFE0D1FF
:102950007AD886E1AFDE45DB89E713DB80E090E0E3
:1029600075D3898381E090E071D38A8382E090E01F
:102970006DD38B8383E090E069D38C8384E090E017
:1029800065D38D8385E090E061D38E8386E090E00F
:102990005DD38F8387E090E059D3888788E090E00B
:1029A00055D3898789E090E051D38A870E94110B23
:1029B0000E94CB0A0E94FB0A50DE11E010934121D5
:1029C000809141210E948D041093372180E098E08E
:1029D00001D680E498E0CCD5809141210E940F047B
:1029E0000E947F050E94D70C0E94AF0CDFDA811194
:1029F00011C0809141218093402186E08093412144
:102A0000809141210E948D0480E498E0E3D580E02C
:102A100098E0AED588E00E94ED03A8950E940104DD
:102A20000E94FB0C0F2EF0E6CF2EF6E0DF2EF02DED
:102A30006894662461F801E00F2EF0EE8F2EF7E027
:102A40009F2EF02D6894BB24B6F80F2EE12CF6E0F3
:102A5000FF2EF02D6894552457F8362C102F6894CB
:102A6000AA24A5F86894442442F80F2EF6E07F2E9D
:102A7000F02D80912521882309F472C0E091252151
:102A80008E2F90E0FC01E05AF109E730F10508F0E3
:102A900065C0E05EFE4F0C949820F701A582FFE729
:102AA0002AE186E0F15020408040E1F700C00000BC
:102AB000F701A68253C0F701B582FFE72AE186E05D
:102AC000F15020408040E1F700C00000F701B682DD
:102AD00045C0F7015582FFE72AE186E0F15020402A
:102AE0008040E1F700C00000F701568237C0F601D0
:102AF000B582FFE72AE186E0F15020408040E1F70F
:102B000000C00000F601B68229C0F4010583FFE78A
:102B10002AE186E0F15020408040E1F700C000004B
:102B2000F40106831BC0F6010583FFE72AE186E076
:102B3000F15020408040E1F700C00000F60106831C
:102B40000DC0F6016582FFE72AE186E0F1502040E2
:102B50008040E1F700C00000F60166821092252156
:102B600025DA8823F1F080914121813009F4C7C032
:102B70004FEF60E080E01FDA109231218091412117
:102B80008093402110934121809141210E948D0426
:102B90001093372180E098E01DD580E498E0E8D4D8
:102BA000AEC080914121813089F480914121809390
:102BB000402170924121809141210E948D0480E446
:102BC00098E008D580E098E0D3D420DA0E94A90DDF
:102BD000882351F080914121823031F08091412150
:102BE000843011F00E94B10D80913121882379F059
:102BF00080914121809340211092412180E098E012
:102C0000E9D457DD40E060E080E0D5D978C00E948B
:102C1000AC0D882359F10E94A90D8823A1F01093CF
:102C20004421809141218093402130924121809123
:102C300041210E948D0480E098E09AD4612F80E0C9
:102C40000E94B70A5CC01092442180914121809378
:102C5000402170924121809141210E948D04C1D96F
:102C600060E080E00E94B70AD1D949C08091442138
:102C7000813009F044C080910021882309F43FC0CD
:102C800080914121823081F40E943308809141215A
:102C90008093402140924121809141210E948D04E6
:102CA00080E098E065D429C080914121843029F5E5
:102CB0000E9433087BD9882399F080914121809329
:102CC000402110934121809141210E948D04109355
:102CD000372180E098E07ED480E498E049D40DC0AC
:102CE0008091412180934021309241218091412166
:102CF0000E948D0480E098E03BD4109200218091E6
:102D00007C2A882309F4B5CE10927C2AA895A7CEF8
:102D10008FEF809370008093710080937200809396
:102D200073008093740080937500809376009FB742
:102D3000F894E0E5F0E08081826080839FBF81812C
:102D400081FFFDCF61E080E490E07AD19FB7F894F5
:102D5000E0E5F0E080818E7F80839FBF08959FB77C
:102D6000F894E82FF0E0E059FF4F609580816823E8
:102D700060839FBF08959FB7F894E82FF0E0E05973
:102D8000FF4F8081682B60839FBF0895CF93DF93AF
:102D9000FC01709620E030E0C62FD0E0DE01022E6C
:102DA00002C0B595A7950A94E2F7A0FD50832F5F66
:102DB0003F4F31962830310589F740FF0AC041FF67
:102DC00003C0FC01658302C0FC016683FC016183D2
:102DD00002C0FC016283DF91CF9108959C019FB7EF
:102DE000F8942115324021F46093AD2A7093AE2AF5
:102DF0009FBF08958115924059F48091452191E03B
:102E0000980F90934521811103C062E081E0A7CF24
:102E100008958115924051F480914521815080930D
:102E20004521811103C062E081E0A5CF08951F9381
:102E3000CF93DF93EC011FB7F894DCDF88818160CA
:102E400088831FBF9FB7F894E7EAFAE281818F5F1A
:102E500081839FBFDF91CF911F910895CF93CFB70B
:102E6000F894FC0120812E7F2083D3DFCFBF9FB752
:102E7000F894E7EAFAE28181815081839FBFCF9184
:102E800008951F920F920FB60F9211242F933F9324
:102E90004F935F936F937F938F939F93AF93BF9362
:102EA000EF93FF934091240250912502E091AD2AC7
:102EB000F091AE2A61E080E092E00995FF91EF91F8
:102EC000BF91AF919F918F917F916F915F914F9142
:102ED0003F912F910F900FBE0F901F901895DF928A
:102EE000EF92FF920F931F93CF93DF93811522E010
:102EF000920761F58B01EC0161E270E082E0F0D0B5
:102F0000E82EF12C60E270E082E0EAD0FE2CEE24A4
:102F1000E82ADFB6F894CE016DDF8881817092E0F7
:102F20009883EC86FD86F80124813581288F398FBE
:102F300091819A8393819C8392819B8390819983D1
:102F4000968198878883CE0164DFDFBEDF91CF91C1
:102F50001F910F91FF90EF90DF900895FF920F93D4
:102F60001F93CF93DF93EC018B01FFB6F89442DF00
:102F7000888D998DF801848395838A8181838C81E2
:102F800083838B8182838981808388858683CE0138
:102F900040DFFFBEDF91CF911F910F91FF90089509
:102FA000FF920F931F93CF93DF93EC018A01FFB63B
:102FB000F89420DFF801808188A382818AA381812F
:102FC00089A383818EA384818FA3858188A786812D
:102FD00089A787818AA780858BA781858CA7CE0149
:102FE00018DFFFBEDF91CF911F910F91FF900895E1
:102FF000FF920F931F93CF93DF93EC018A01FFB6EB
:10300000F894F8DE88A1F80180838AA1828389A1DF
:1030100081838EA183838FA1848388A5858389A5DD
:1030200086838AA587838BA580878CA58187CE011F
:10303000F0DEFFBEDF91CF911F910F91FF900895B9
:103040001BBEFC0128ED24BF608308959C01E0ECC9
:10305000F1E097859923ECF3F901F05F8081089501
:10306000E0ECF1E087858823ECF38091CF0181FFCC
:1030700007C086E38093CA0161E08BEC91E0E0CF6A
:103080000895E0ECF1E097859923ECF3E82FF0E068
:10309000F05F60830895FF920F931F93CF93DF93A8
:1030A000182FF92EC62F0091CA01DADFE0ECF1E00B
:1030B00027852223ECF36C2F812FE3DFC0ECD1E0D6
:1030C0001A82F982188385E38A8761E08BEC91E0AC
:1030D000B7DF0A87DF91CF911F910F91FF9008957D
:1030E0004091CA01E62FF72F8093CA018491409343
:1030F000CA0108951F920F920FB60F9211242F93B9
:103100003F934F935F936F937F938F939F93AF936F
:10311000BF93EF93FF93E0916021F091612130978D
:1031200009F00995FF91EF91BF91AF919F918F9118
:103130007F916F915F914F913F912F910F900FBEB3
:103140000F901F9018951F920F920FB60F92112497
:103150002F933F934F935F936F937F938F939F939F
:10316000AF93BF93EF93FF93E0915E21F0915F21C6
:10317000309709F00995FF91EF91BF91AF919F9121
:103180008F917F916F915F914F913F912F910F9010
:103190000FBE0F901F9018951F920F920FB60F92AF
:1031A00011242F933F934F935F936F937F938F934C
:1031B0009F93AF93BF93EF93FF93E0915C21F091C6
:1031C0005D21309709F00995FF91EF91BF91AF9183
:1031D0009F918F917F916F915F914F913F912F912F
:1031E0000F900FBE0F901F9018951F920F920FB661
:1031F0000F9211242F933F934F935F936F937F937D
:103200008F939F93AF93BF93EF93FF93E0915A21D6
:10321000F0915B21309709F00995FF91EF91BF91F3
:10322000AF919F918F917F916F915F914F913F915E
:103230002F910F900FBE0F901F9018951F920F9215
:103240000FB60F9211242F933F934F935F936F9379
:103250007F938F939F93AF93BF93EF93FF93E091EF
:103260005821F0915921309709F00995FF91EF917C
:10327000BF91AF919F918F917F916F915F914F918E
:103280003F912F910F900FBE0F901F9018951F9296
:103290000F920FB60F9211242F933F934F935F938A
:1032A0006F937F938F939F93AF93BF93EF93FF930E
:1032B000E0915621F0915721309709F00995FF913F
:1032C000EF91BF91AF919F918F917F916F915F919E
:1032D0004F913F912F910F900FBE0F901F90189517
:1032E0001F920F920FB60F9211242F933F934F937B
:1032F0005F936F937F938F939F93AF93BF93EF935E
:10330000FF93E0915421F0915521309709F00995F0
:10331000FF91EF91BF91AF919F918F917F916F91AD
:103320005F914F913F912F910F900FBE0F901F9083
:1033300018951F920F920FB60F9211242F933F935F
:103340004F935F936F937F938F939F93AF93BF93AD
:10335000EF93FF93E0915221F0915321309709F0C0
:103360000995FF91EF91BF91AF919F918F917F91BF
:103370006F915F914F913F912F910F900FBE0F90E2
:103380001F9018951F920F920FB60F9211242F9332
:103390003F934F935F936F937F938F939F93AF93DD
:1033A000BF93EF93FF93E0915021F091512130971B
:1033B00009F00995FF91EF91BF91AF919F918F9186
:1033C0007F916F915F914F913F912F910F900FBE21
:1033D0000F901F9018951F920F920FB60F92112405
:1033E0002F933F934F935F936F937F938F939F930D
:1033F000AF93BF93EF93FF93E0914E21F0914F2154
:10340000309709F00995FF91EF91BF91AF919F918E
:103410008F917F916F915F914F913F912F910F907D
:103420000FBE0F901F9018951F920F920FB60F921C
:1034300011242F933F934F935F936F937F938F93B9
:103440009F93AF93BF93EF93FF93E0914C21F09143
:103450004D21309709F00995FF91EF91BF91AF9100
:103460009F918F917F916F915F914F913F912F919C
:103470000F900FBE0F901F9018951F920F920FB6CE
:103480000F9211242F933F934F935F936F937F93EA
:103490008F939F93AF93BF93EF93FF93E0914A2154
:1034A000F0914B21309709F00995FF91EF91BF9171
:1034B000AF919F918F917F916F915F914F913F91CC
:1034C0002F910F900FBE0F901F9018951F920F9283
:1034D0000FB60F9211242F933F934F935F936F93E7
:1034E0007F938F939F93AF93BF93EF93FF93E0915D
:1034F0004821F0914921309709F00995FF91EF910A
:10350000BF91AF919F918F917F916F915F914F91FB
:103510003F912F910F900FBE0F901F9018951F9203
:103520000F920FB60F9211242F933F934F935F93F7
:103530006F937F938F939F93AF93BF93EF93FF937B
:10354000E0914621F0914721309709F00995FF91CC
:10355000EF91BF91AF919F918F917F916F915F910B
:103560004F913F912F910F900FBE0F901F90189584
:10357000CF93CFB7F894282F392F211588E038073B
:1035800039F461E083E0EBDB64E083E0E8DB17C063
:10359000203488E0380739F462E083E0E0DB64E05F
:1035A00083E0DDDB0CC02034394039F462E084E094
:1035B000D6DB64E084E0D3DB02C0CFBF09C09FB795
:1035C000F894E7EAFAE281818F5F81839FBFCFBFE2
:1035D000CF910895CF93CFB7F8943FB7F894E7EA27
:1035E000FAE22181215021833FBF282F392F211555
:1035F00088E0380739F461E083E0BDDB64E083E014
:10360000BADB17C0203488E0380739F462E083E081
:10361000B2DB64E083E0AFDB0CC02034394039F426
:1036200061E084E0A8DB64E084E0A5DB02C0CFBFFA
:1036300001C0CFBFCF910895811528E0920729F4EA
:1036400060936021709361210895803428E092078F
:1036500029F4609354217093552108958034994042
:1036600021F460934C2170934D2108951F920F9285
:103670000FB60F9211242F933F934F935F936F9345
:103680007F938F939F93AF93BF93CF93DF93EF93EA
:10369000FF93E0916221F0916321848183FF08C050
:1036A0008860848383E0838386EF80936C2195C058
:1036B000982F947131F083E083838FEF80936C2196
:1036C0008CC086FF43C0C2E6D1E2AA81BB818C8157
:1036D0009D8114962D913C911597821793076CF458
:1036E0009C012F5F3F4F2093662130936721A80FE5
:1036F000B91F11968C91878370C080916821909139
:10370000692118962D913C91199782179307C8F457
:1037100020916A21222321F08681816086835DC009
:1037200016962D913C911797AC014F5F5F4F4093D8
:10373000682150936921D901A80FB91F8C91878303
:103740004CC083E0838310926C2147C088230CF027
:1037500041C0C2E6D1E2AA81BB818E819F811896C9
:103760002D913C9119978217930770F516966D91DC
:103770007C9117979C012F5F3F4F209368213093D6
:1037800069214781860F971FEC014883EB018881EF
:1037900090E0019618964D915C911997481759073A
:1037A00021F018968D939C93199718968D919C9162
:1037B00019972817390718F482E083830EC087E031
:1037C000838310926C2109C083E0838389EF809307
:1037D0006C2103C08BEF80936C21FF91EF91DF91FF
:1037E000CF91BF91AF919F918F917F916F915F9199
:1037F0004F913F912F910F900FBE0F901F901895F2
:10380000FC01DB0114968C91858388EB818381E038
:103810008483E2E6F1E211861286E0EAF0E082813A
:1038200082608283789480E00895DC01892B09F41A
:1038300049C06115710509F447C0FB01928580916B
:103840006B21882319F09923F1F340C08FB7F894C6
:10385000E2E6F1E291E0918790E892878FBFA08342
:10386000B183628373831482158216821782408724
:10387000FB018081880F24813581232B11F44111B4
:1038800003C016968C9303C0816016968C93E2E673
:10389000F1E282858038E9F3E0916221F0916321C1
:1038A00084818370813049F0A2E6B1E2ED91FC9110
:1038B0001197848183708130C9F7E2E6F1E2828555
:1038C0001186089588EF089588EF089586EF08958A
:1038D000FC0122E137E203C02150310919F0918146
:1038E00095FFFACF608380E090E00895FC0122E12B
:1038F00037E203C02150310919F091819923D4F79F
:10390000808108952F923F924F925F926F927F92A3
:103910008F929F92AF92BF92CF92DF92EF92FF92DF
:103920000F931F93CF931C012A013B0148015901BA
:10393000D901C801689412F8B695A795979587950F
:103940001694D1F7B901A801032E36E17695679553
:10395000579547953A95D1F7302DF101238122FDF6
:1039600008C0B695A79597958795769567955795CD
:10397000479584159505A605B70508F4AAC0441611
:1039800055066606770608F4A6C0F101838182FD1C
:1039900004C0440C551C661C771CC501B401A3016E
:1039A0009201A4D32F3F31054105510508F495C07C
:1039B000C12CD12C7601CA94C9EF05C02C153D0548
:1039C0004E055F0568F0CC0CDD1CEE1CFF1CCD3FE6
:1039D00014F46894C0F8CF5FC73081F78C2F54C0BF
:1039E0008C2FCC230CF050C0D301C201880F991F3B
:1039F000AA1FBB1F880F991FAA1FBB1F880F991FE3
:103A0000AA1FBB1F85017401E81AF90A0A0B1B0BD8
:103A1000D801C701CE3FECF42DEF3FEF2C1B31094D
:103A2000C7FD339504C0880F991FAA1FBB1F2A9595
:103A3000D2F773016201F694E794D794C794BC015E
:103A4000CD016C0D7D1D8E1D9F1DA30192014ED3D6
:103A500036C023E02C0F8301720104C0EE0CFF1C62
:103A6000001F111F2A95D2F7A8019701670178015D
:103A7000F694E794D794C794BC01CD016C0D7D1DDD
:103A80008E1D9F1D33D31BC08D5FA301920104C007
:103A9000220F331F441F551F8A95D2F7DA01C9013F
:103AA000B695A79597958795BC01CD01680D791DB1
:103AB0008A1D9B1D1BD32150310941095109832FB8
:103AC0008F70C295C07FC82BF101C783268381E028
:103AD0001CC080E01AC080E018C0D301C201880F6A
:103AE000991FAA1FBB1F880F991FAA1FBB1F880FF2
:103AF000991FAA1FBB1F85017401E81AF90A0A0B56
:103B00001B0BD801C701C9EF87CFCF911F910F9130
:103B1000FF90EF90DF90CF90BF90AF909F908F90ED
:103B20007F906F905F904F903F902F9008950F93EC
:103B30001F93CF93DF93EC018B01892B09F477C09E
:103B4000C11584E0D80721F464E080E008D96FC093
:103B5000C038E1E0DE0721F462E080E000D967C010
:103B6000C115F1E0DF0721F461E080E0F8D85FC023
:103B7000C03883E0D80721F461E081E0F0D857C075
:103B8000C115E2E0DE0721F462E081E0E8D84FC031
:103B9000C115F3E0DF0721F464E081E0E0D847C01D
:103BA000C11588E0D80721F461E083E0D8D83FC090
:103BB000C034E8E0DE0721F462E083E0D0D837C00B
:103BC000C034F9E0DF0721F462E084E0C8D82FC0F8
:103BD000C03B88E0D80721F464E083E0C0D827C068
:103BE000C03EE8E0DE0721F468E083E0B8D81FC0FB
:103BF000C03CF8E0DF0721F460E183E0B0D817C0F3
:103C0000C03C89E0D80721F460E184E0A8D80FC067
:103C1000C038E4E0DE0721F460E483E0A0D807C008
:103C2000C036F4E0DF0719F460E880E098D88C81B2
:103C30008F738C83F80194818581892B96819111F2
:103C400098E0892B8C83F8014081518162817381D6
:103C500000E018E428EE31E0CE0154DE9B8198604C
:103C60009B839B8190619B83DF91CF911F910F91EB
:103C700008955058BB27AA270ED070C161D130F0EB
:103C800066D120F031F49F3F11F41EF456C10EF4BA
:103C9000E095E7FB4CC1E92F72D180F3BA176207B8
:103CA00073078407950718F071F49EF58AC10EF426
:103CB000E0950B2EBA2FA02D0B01B90190010C013C
:103CC000CA01A0011124FF27591B99F0593F50F454
:103CD000503E68F11A16F040A22F232F342F4427AC
:103CE000585FF3CF469537952795A795F0405395A4
:103CF000C9F77EF41F16BA0B620B730B840BBAF074
:103D00009150A1F0FF0FBB1F661F771F881FC2F7DE
:103D10000EC0BA0F621F731F841F48F487957795F2
:103D20006795B795F7959E3F08F0B3CF9395880FA9
:103D300008F09927EE0F979587950895D4D008F449
:103D400081E008950CD00AC102D140F0F9D030F0E2
:103D500021F45F3F19F0EBC0511134C1EEC00FD117
:103D600098F39923C9F35523B1F3951B550BBB2742
:103D7000AA2762177307840738F09F5F5F4F220FEF
:103D8000331F441FAA1FA9F333D00E2E3AF0E0E8E8
:103D900030D091505040E695001CCAF729D0FE2F34
:103DA00027D0660F771F881FBB1F261737074807C6
:103DB000AB07B0E809F0BB0B802DBF01FF2793587C
:103DC0005F4F2AF09E3F510568F0B1C0FBC05F3FD6
:103DD000ECF3983EDCF3869577956795B795F79564
:103DE0009F5FC9F7880F911D9695879597F908955C
:103DF000E1E0660F771F881FBB1F621773078407F8
:103E0000BA0720F0621B730B840BBA0BEE1F88F706
:103E1000E0950895BCD088F09F5790F0B92F99276E
:103E2000B751A0F0D1F0660F771F881F991F1AF0C5
:103E3000BA95C9F712C0B13081F0C3D0B1E008958E
:103E4000C0C0672F782F8827B85F39F0B93FCCF30F
:103E5000869577956795B395D9F73EF490958095BB
:103E6000709561957F4F8F4F9F4F0895E89409C0DB
:103E700097FB3EF490958095709561957F4F8F4F9D
:103E80009F4F9923A9F0F92F96E9BB279395F695B3
:103E9000879577956795B795F111F8CFFAF4BB0F31
:103EA00011F460FF1BC06F5F7F4F8F4F9F4F16C095
:103EB000882311F096E911C0772321F09EE8872F1F
:103EC000762F05C0662371F096E8862F70E060E0DB
:103ED0002AF09A95660F771F881FDAF7880F969554
:103EE000879597F90895990F0008550FAA0BE0E8F8
:103EF000FEEF16161706E807F907C0F012161306AC
:103F0000E407F50798F0621B730B840B950B39F4EB
:103F10000A2661F0232B242B252B21F408950A2651
:103F200009F4A140A6958FEF811D811D089597F991
:103F30009F6780E870E060E008959FEF80EC08954F
:103F400000240A9416161706180609060895002478
:103F50000A9412161306140605060895092E0394F2
:103F6000000C11F4882352F0BB0F40F4BF2B11F466
:103F700060FF04C06F5F7F4F8F4F9F4F089557FDC5
:103F80009058440F551F59F05F3F71F04795880FC7
:103F900097FB991F61F09F3F79F08795089512165E
:103FA00013061406551FF2CF4695F1DF08C016160A
:103FB00017061806991FF1CF8695710561050894BB
:103FC0000895E894BB2766277727CB0197F90895D2
:103FD0008ADF08F48FEF08950BD0C0CFB1DF28F04F
:103FE000B6DF18F0952309F0A2CFA7CF1124EACFAE
:103FF000C6DFA0F3959FD1F3950F50E0551F629F48
:10400000F001729FBB27F00DB11D639FAA27F00D31
:10401000B11DAA1F649F6627B00DA11D661F829F58
:104020002227B00DA11D621F739FB00DA11D621F3D
:10403000839FA00D611D221F749F3327A00D611D5A
:10404000231F849F600D211D822F762F6A2F11243C
:104050009F5750408AF0E1F088234AF0EE0FFF1F8F
:10406000BB1F661F771F881F91505040A9F79E3FC6
:10407000510570F05CCFA6CF5F3FECF3983EDCF3C8
:10408000869577956795B795F795E7959F5FC1F703
:10409000FE2B880F911D9695879597F90895AA1B79
:1040A000BB1B51E107C0AA1FBB1FA617B70710F023
:1040B000A61BB70B881F991F5A95A9F78095909555
:1040C000BC01CD01089597FB072E16F4009406D08D
:1040D00077FD08D0E4DF07FC05D03EF4909581958C
:1040E0009F4F0895709561957F4F0895A1E21A2E14
:1040F000AA1BBB1BFD010DC0AA1FBB1FEE1FFF1F8C
:10410000A217B307E407F50720F0A21BB30BE40BDB
:10411000F50B661F771F881F991F1A9469F7609522
:104120007095809590959B01AC01BD01CF010895DC
:10413000EE0FFF1F0590F491E02D0994F894FFCF46
:104140006464646666663F0000803F6B0012000393
:1041500000808080808080808080808080808080DF
:10416000808080808080808080808080808080804F
:10417000808080808080808080808080808080803F
:10418000808080808080808080808080808080802F
:10419000808080808080808080808080808080801F
:1041A000808080808080808080808080808080800F
:1041B00080808080808080808080808080808080FF
:1041C00080808080808080808080808080808080EF
:1041D00080808080808080808080808080808080DF
:1041E00080808080808080808080808080808080CF
:1041F00080808080808080808080808080808080BF
:1042000080808080808080808080808080808080AE
:10421000808080800100960000030000FF00000005
:10422000FF000000FF808080808080808080808010
:10423000000006604038E02E302A201CC0126009C1
:00000001FF
